{
  "_format": "hh-sol-artifact-1",
  "contractName": "MyContract",
  "sourceName": "contracts/myContract.sol",
  "abi": [
    {
      "inputs": [],
      "stateMutability": "nonpayable",
      "type": "constructor"
    },
    {
      "inputs": [],
      "name": "ApprovalCallerNotOwnerNorApproved",
      "type": "error"
    },
    {
      "inputs": [],
      "name": "ApprovalQueryForNonexistentToken",
      "type": "error"
    },
    {
      "inputs": [],
      "name": "ApproveToCaller",
      "type": "error"
    },
    {
      "inputs": [],
      "name": "BalanceQueryForZeroAddress",
      "type": "error"
    },
    {
      "inputs": [],
      "name": "MintERC2309QuantityExceedsLimit",
      "type": "error"
    },
    {
      "inputs": [],
      "name": "MintToZeroAddress",
      "type": "error"
    },
    {
      "inputs": [],
      "name": "MintZeroQuantity",
      "type": "error"
    },
    {
      "inputs": [],
      "name": "OwnerQueryForNonexistentToken",
      "type": "error"
    },
    {
      "inputs": [],
      "name": "OwnershipNotInitializedForExtraData",
      "type": "error"
    },
    {
      "inputs": [],
      "name": "TransferCallerNotOwnerNorApproved",
      "type": "error"
    },
    {
      "inputs": [],
      "name": "TransferFromIncorrectOwner",
      "type": "error"
    },
    {
      "inputs": [],
      "name": "TransferToNonERC721ReceiverImplementer",
      "type": "error"
    },
    {
      "inputs": [],
      "name": "TransferToZeroAddress",
      "type": "error"
    },
    {
      "inputs": [],
      "name": "URIQueryForNonexistentToken",
      "type": "error"
    },
    {
      "anonymous": false,
      "inputs": [
        {
          "indexed": true,
          "internalType": "address",
          "name": "owner",
          "type": "address"
        },
        {
          "indexed": true,
          "internalType": "address",
          "name": "approved",
          "type": "address"
        },
        {
          "indexed": true,
          "internalType": "uint256",
          "name": "tokenId",
          "type": "uint256"
        }
      ],
      "name": "Approval",
      "type": "event"
    },
    {
      "anonymous": false,
      "inputs": [
        {
          "indexed": true,
          "internalType": "address",
          "name": "owner",
          "type": "address"
        },
        {
          "indexed": true,
          "internalType": "address",
          "name": "operator",
          "type": "address"
        },
        {
          "indexed": false,
          "internalType": "bool",
          "name": "approved",
          "type": "bool"
        }
      ],
      "name": "ApprovalForAll",
      "type": "event"
    },
    {
      "anonymous": false,
      "inputs": [
        {
          "indexed": true,
          "internalType": "uint256",
          "name": "fromTokenId",
          "type": "uint256"
        },
        {
          "indexed": false,
          "internalType": "uint256",
          "name": "toTokenId",
          "type": "uint256"
        },
        {
          "indexed": true,
          "internalType": "address",
          "name": "from",
          "type": "address"
        },
        {
          "indexed": true,
          "internalType": "address",
          "name": "to",
          "type": "address"
        }
      ],
      "name": "ConsecutiveTransfer",
      "type": "event"
    },
    {
      "anonymous": false,
      "inputs": [
        {
          "indexed": true,
          "internalType": "address",
          "name": "previousOwner",
          "type": "address"
        },
        {
          "indexed": true,
          "internalType": "address",
          "name": "newOwner",
          "type": "address"
        }
      ],
      "name": "OwnershipTransferred",
      "type": "event"
    },
    {
      "anonymous": false,
      "inputs": [
        {
          "indexed": true,
          "internalType": "address",
          "name": "from",
          "type": "address"
        },
        {
          "indexed": true,
          "internalType": "address",
          "name": "to",
          "type": "address"
        },
        {
          "indexed": true,
          "internalType": "uint256",
          "name": "tokenId",
          "type": "uint256"
        }
      ],
      "name": "Transfer",
      "type": "event"
    },
    {
      "inputs": [
        {
          "internalType": "address[]",
          "name": "addresses",
          "type": "address[]"
        },
        {
          "internalType": "uint256[]",
          "name": "counts",
          "type": "uint256[]"
        }
      ],
      "name": "addWhitelists",
      "outputs": [],
      "stateMutability": "nonpayable",
      "type": "function"
    },
    {
      "inputs": [
        {
          "internalType": "address",
          "name": "to",
          "type": "address"
        },
        {
          "internalType": "uint256",
          "name": "tokenId",
          "type": "uint256"
        }
      ],
      "name": "approve",
      "outputs": [],
      "stateMutability": "nonpayable",
      "type": "function"
    },
    {
      "inputs": [
        {
          "internalType": "address",
          "name": "owner",
          "type": "address"
        }
      ],
      "name": "balanceOf",
      "outputs": [
        {
          "internalType": "uint256",
          "name": "",
          "type": "uint256"
        }
      ],
      "stateMutability": "view",
      "type": "function"
    },
    {
      "inputs": [],
      "name": "baseExtension",
      "outputs": [
        {
          "internalType": "string",
          "name": "",
          "type": "string"
        }
      ],
      "stateMutability": "view",
      "type": "function"
    },
    {
      "inputs": [
        {
          "internalType": "uint256[]",
          "name": "burnTokenIds",
          "type": "uint256[]"
        }
      ],
      "name": "burnMint",
      "outputs": [],
      "stateMutability": "payable",
      "type": "function"
    },
    {
      "inputs": [],
      "name": "burnMintCost",
      "outputs": [
        {
          "internalType": "uint256",
          "name": "",
          "type": "uint256"
        }
      ],
      "stateMutability": "view",
      "type": "function"
    },
    {
      "inputs": [
        {
          "internalType": "bool",
          "name": "_value",
          "type": "bool"
        }
      ],
      "name": "burnMintPause",
      "outputs": [],
      "stateMutability": "nonpayable",
      "type": "function"
    },
    {
      "inputs": [],
      "name": "burnMintPaused",
      "outputs": [
        {
          "internalType": "bool",
          "name": "",
          "type": "bool"
        }
      ],
      "stateMutability": "view",
      "type": "function"
    },
    {
      "inputs": [
        {
          "internalType": "uint256",
          "name": "tokenId",
          "type": "uint256"
        }
      ],
      "name": "exists",
      "outputs": [
        {
          "internalType": "bool",
          "name": "",
          "type": "bool"
        }
      ],
      "stateMutability": "view",
      "type": "function"
    },
    {
      "inputs": [
        {
          "internalType": "address",
          "name": "value",
          "type": "address"
        }
      ],
      "name": "getActualMaxMintAmount",
      "outputs": [
        {
          "internalType": "uint256",
          "name": "",
          "type": "uint256"
        }
      ],
      "stateMutability": "view",
      "type": "function"
    },
    {
      "inputs": [
        {
          "internalType": "uint256",
          "name": "tokenId",
          "type": "uint256"
        }
      ],
      "name": "getApproved",
      "outputs": [
        {
          "internalType": "address",
          "name": "",
          "type": "address"
        }
      ],
      "stateMutability": "view",
      "type": "function"
    },
    {
      "inputs": [],
      "name": "getMaxMintAmount",
      "outputs": [
        {
          "internalType": "uint256",
          "name": "",
          "type": "uint256"
        }
      ],
      "stateMutability": "view",
      "type": "function"
    },
    {
      "inputs": [],
      "name": "getTotalBurned",
      "outputs": [
        {
          "internalType": "uint256",
          "name": "",
          "type": "uint256"
        }
      ],
      "stateMutability": "view",
      "type": "function"
    },
    {
      "inputs": [
        {
          "internalType": "address",
          "name": "value",
          "type": "address"
        }
      ],
      "name": "getWhitelistCount",
      "outputs": [
        {
          "internalType": "uint256",
          "name": "",
          "type": "uint256"
        }
      ],
      "stateMutability": "view",
      "type": "function"
    },
    {
      "inputs": [
        {
          "internalType": "address",
          "name": "owner",
          "type": "address"
        },
        {
          "internalType": "address",
          "name": "operator",
          "type": "address"
        }
      ],
      "name": "isApprovedForAll",
      "outputs": [
        {
          "internalType": "bool",
          "name": "",
          "type": "bool"
        }
      ],
      "stateMutability": "view",
      "type": "function"
    },
    {
      "inputs": [],
      "name": "maxBurnMint",
      "outputs": [
        {
          "internalType": "uint256",
          "name": "",
          "type": "uint256"
        }
      ],
      "stateMutability": "view",
      "type": "function"
    },
    {
      "inputs": [],
      "name": "maxMintAmount",
      "outputs": [
        {
          "internalType": "uint256",
          "name": "",
          "type": "uint256"
        }
      ],
      "stateMutability": "view",
      "type": "function"
    },
    {
      "inputs": [],
      "name": "maxMintAmountForWhitelist",
      "outputs": [
        {
          "internalType": "uint256",
          "name": "",
          "type": "uint256"
        }
      ],
      "stateMutability": "view",
      "type": "function"
    },
    {
      "inputs": [],
      "name": "maxSupply",
      "outputs": [
        {
          "internalType": "uint256",
          "name": "",
          "type": "uint256"
        }
      ],
      "stateMutability": "view",
      "type": "function"
    },
    {
      "inputs": [
        {
          "internalType": "uint256",
          "name": "quantity",
          "type": "uint256"
        }
      ],
      "name": "mint",
      "outputs": [],
      "stateMutability": "payable",
      "type": "function"
    },
    {
      "inputs": [],
      "name": "mintCost",
      "outputs": [
        {
          "internalType": "uint256",
          "name": "",
          "type": "uint256"
        }
      ],
      "stateMutability": "view",
      "type": "function"
    },
    {
      "inputs": [],
      "name": "name",
      "outputs": [
        {
          "internalType": "string",
          "name": "",
          "type": "string"
        }
      ],
      "stateMutability": "view",
      "type": "function"
    },
    {
      "inputs": [],
      "name": "onlyWhitelisted",
      "outputs": [
        {
          "internalType": "bool",
          "name": "",
          "type": "bool"
        }
      ],
      "stateMutability": "view",
      "type": "function"
    },
    {
      "inputs": [],
      "name": "owner",
      "outputs": [
        {
          "internalType": "address",
          "name": "",
          "type": "address"
        }
      ],
      "stateMutability": "view",
      "type": "function"
    },
    {
      "inputs": [
        {
          "internalType": "uint256",
          "name": "tokenId",
          "type": "uint256"
        }
      ],
      "name": "ownerOf",
      "outputs": [
        {
          "internalType": "address",
          "name": "",
          "type": "address"
        }
      ],
      "stateMutability": "view",
      "type": "function"
    },
    {
      "inputs": [
        {
          "internalType": "bool",
          "name": "_state",
          "type": "bool"
        }
      ],
      "name": "pause",
      "outputs": [],
      "stateMutability": "nonpayable",
      "type": "function"
    },
    {
      "inputs": [],
      "name": "paused",
      "outputs": [
        {
          "internalType": "bool",
          "name": "",
          "type": "bool"
        }
      ],
      "stateMutability": "view",
      "type": "function"
    },
    {
      "inputs": [],
      "name": "renounceOwnership",
      "outputs": [],
      "stateMutability": "nonpayable",
      "type": "function"
    },
    {
      "inputs": [
        {
          "internalType": "address",
          "name": "from",
          "type": "address"
        },
        {
          "internalType": "address",
          "name": "to",
          "type": "address"
        },
        {
          "internalType": "uint256",
          "name": "tokenId",
          "type": "uint256"
        }
      ],
      "name": "safeTransferFrom",
      "outputs": [],
      "stateMutability": "nonpayable",
      "type": "function"
    },
    {
      "inputs": [
        {
          "internalType": "address",
          "name": "from",
          "type": "address"
        },
        {
          "internalType": "address",
          "name": "to",
          "type": "address"
        },
        {
          "internalType": "uint256",
          "name": "tokenId",
          "type": "uint256"
        },
        {
          "internalType": "bytes",
          "name": "_data",
          "type": "bytes"
        }
      ],
      "name": "safeTransferFrom",
      "outputs": [],
      "stateMutability": "nonpayable",
      "type": "function"
    },
    {
      "inputs": [
        {
          "internalType": "address",
          "name": "operator",
          "type": "address"
        },
        {
          "internalType": "bool",
          "name": "approved",
          "type": "bool"
        }
      ],
      "name": "setApprovalForAll",
      "outputs": [],
      "stateMutability": "nonpayable",
      "type": "function"
    },
    {
      "inputs": [
        {
          "internalType": "string",
          "name": "_value",
          "type": "string"
        }
      ],
      "name": "setBaseExtension",
      "outputs": [],
      "stateMutability": "nonpayable",
      "type": "function"
    },
    {
      "inputs": [
        {
          "internalType": "string",
          "name": "_newBaseURI",
          "type": "string"
        }
      ],
      "name": "setBaseURI",
      "outputs": [],
      "stateMutability": "nonpayable",
      "type": "function"
    },
    {
      "inputs": [
        {
          "internalType": "uint256",
          "name": "_value",
          "type": "uint256"
        }
      ],
      "name": "setBurnMintCost",
      "outputs": [],
      "stateMutability": "nonpayable",
      "type": "function"
    },
    {
      "inputs": [
        {
          "internalType": "uint256",
          "name": "_value",
          "type": "uint256"
        }
      ],
      "name": "setMaxBurnMint",
      "outputs": [],
      "stateMutability": "nonpayable",
      "type": "function"
    },
    {
      "inputs": [
        {
          "internalType": "uint256",
          "name": "_newMaxMintAmount",
          "type": "uint256"
        }
      ],
      "name": "setMaxMintAmount",
      "outputs": [],
      "stateMutability": "nonpayable",
      "type": "function"
    },
    {
      "inputs": [
        {
          "internalType": "uint256",
          "name": "_value",
          "type": "uint256"
        }
      ],
      "name": "setMaxMintAmountForWhiteList",
      "outputs": [],
      "stateMutability": "nonpayable",
      "type": "function"
    },
    {
      "inputs": [
        {
          "internalType": "uint256",
          "name": "_value",
          "type": "uint256"
        }
      ],
      "name": "setMaxSupply",
      "outputs": [],
      "stateMutability": "nonpayable",
      "type": "function"
    },
    {
      "inputs": [
        {
          "internalType": "uint256",
          "name": "_newCost",
          "type": "uint256"
        }
      ],
      "name": "setMintCost",
      "outputs": [],
      "stateMutability": "nonpayable",
      "type": "function"
    },
    {
      "inputs": [
        {
          "internalType": "bool",
          "name": "_state",
          "type": "bool"
        }
      ],
      "name": "setOnlyWhitelisted",
      "outputs": [],
      "stateMutability": "nonpayable",
      "type": "function"
    },
    {
      "inputs": [
        {
          "internalType": "bytes4",
          "name": "interfaceId",
          "type": "bytes4"
        }
      ],
      "name": "supportsInterface",
      "outputs": [
        {
          "internalType": "bool",
          "name": "",
          "type": "bool"
        }
      ],
      "stateMutability": "view",
      "type": "function"
    },
    {
      "inputs": [],
      "name": "symbol",
      "outputs": [
        {
          "internalType": "string",
          "name": "",
          "type": "string"
        }
      ],
      "stateMutability": "view",
      "type": "function"
    },
    {
      "inputs": [
        {
          "internalType": "uint256",
          "name": "tokenId",
          "type": "uint256"
        }
      ],
      "name": "tokenURI",
      "outputs": [
        {
          "internalType": "string",
          "name": "",
          "type": "string"
        }
      ],
      "stateMutability": "view",
      "type": "function"
    },
    {
      "inputs": [],
      "name": "totalSupply",
      "outputs": [
        {
          "internalType": "uint256",
          "name": "",
          "type": "uint256"
        }
      ],
      "stateMutability": "view",
      "type": "function"
    },
    {
      "inputs": [
        {
          "internalType": "address",
          "name": "from",
          "type": "address"
        },
        {
          "internalType": "address",
          "name": "to",
          "type": "address"
        },
        {
          "internalType": "uint256",
          "name": "tokenId",
          "type": "uint256"
        }
      ],
      "name": "transferFrom",
      "outputs": [],
      "stateMutability": "nonpayable",
      "type": "function"
    },
    {
      "inputs": [
        {
          "internalType": "address",
          "name": "newOwner",
          "type": "address"
        }
      ],
      "name": "transferOwnership",
      "outputs": [],
      "stateMutability": "nonpayable",
      "type": "function"
    },
    {
      "inputs": [
        {
          "internalType": "address",
          "name": "",
          "type": "address"
        }
      ],
      "name": "whitelistCounts",
      "outputs": [
        {
          "internalType": "uint256",
          "name": "",
          "type": "uint256"
        }
      ],
      "stateMutability": "view",
      "type": "function"
    },
    {
      "inputs": [],
      "name": "withdraw",
      "outputs": [],
      "stateMutability": "payable",
      "type": "function"
    },
    {
      "inputs": [],
      "name": "withdrawAddress",
      "outputs": [
        {
          "internalType": "address",
          "name": "",
          "type": "address"
        }
      ],
      "stateMutability": "view",
      "type": "function"
    }
  ],
  "bytecode": "0x60806040526040518060400160405280600581526020017f2e6a736f6e000000000000000000000000000000000000000000000000000000815250600a90805190602001906200005192919062000880565b5066038d7ea4c68000600b5566038d7ea4c68000600c556064600d55600a600e556005600f55600a6010556001601160006101000a81548160ff0219169083151502179055506001601160016101000a81548160ff0219169083151502179055506000601160026101000a81548160ff021916908315150217905550348015620000da57600080fd5b506040518060400160405280600681526020017f4d79204e465400000000000000000000000000000000000000000000000000008152506040518060400160405280600381526020017f4d4e54000000000000000000000000000000000000000000000000000000000081525081600290805190602001906200015f92919062000880565b5080600390805190602001906200017892919062000880565b50620001896200020860201b60201c565b6000819055505050620001b1620001a56200021160201b60201c565b6200021960201b60201c565b620001db60405180606001604052806035815260200162004a7160359139620002df60201b60201c565b62000202730195fcc920eee9a2726a5762b88720f6ac03a577600a6200030b60201b60201c565b62000c04565b60006001905090565b600033905090565b6000600860009054906101000a900473ffffffffffffffffffffffffffffffffffffffff16905081600860006101000a81548173ffffffffffffffffffffffffffffffffffffffff021916908373ffffffffffffffffffffffffffffffffffffffff1602179055508173ffffffffffffffffffffffffffffffffffffffff168173ffffffffffffffffffffffffffffffffffffffff167f8be0079c531659141344cd1fd0a4f28419497f9722a3daafe3b4186f6b6457e060405160405180910390a35050565b620002ef6200033160201b60201c565b80600990805190602001906200030792919062000880565b5050565b6200032d828260405180602001604052806000815250620003c260201b60201c565b5050565b620003416200021160201b60201c565b73ffffffffffffffffffffffffffffffffffffffff16620003676200047360201b60201c565b73ffffffffffffffffffffffffffffffffffffffff1614620003c0576040517f08c379a0000000000000000000000000000000000000000000000000000000008152600401620003b79062000991565b60405180910390fd5b565b620003d483836200049d60201b60201c565b60008373ffffffffffffffffffffffffffffffffffffffff163b146200046e57600080549050600083820390505b6200041d60008683806001019450866200068660201b60201c565b62000454576040517fd1a57ed600000000000000000000000000000000000000000000000000000000815260040160405180910390fd5b818110620004025781600054146200046b57600080fd5b50505b505050565b6000600860009054906101000a900473ffffffffffffffffffffffffffffffffffffffff16905090565b6000805490506000821415620004df576040517fb562e8dd00000000000000000000000000000000000000000000000000000000815260040160405180910390fd5b620004f46000848385620007f860201b60201c565b600160406001901b178202600560008573ffffffffffffffffffffffffffffffffffffffff1673ffffffffffffffffffffffffffffffffffffffff168152602001908152602001600020600082825401925050819055506200058383620005656000866000620007fe60201b60201c565b62000576856200082e60201b60201c565b176200083e60201b60201c565b6004600083815260200190815260200160002081905550600080838301905073ffffffffffffffffffffffffffffffffffffffff85169150828260007fddf252ad1be2c89b69c2b068fc378daa952ba7f163c4a11628f55a4df523b3ef600080a4600183015b8181146200062657808360007fddf252ad1be2c89b69c2b068fc378daa952ba7f163c4a11628f55a4df523b3ef600080a4600181019050620005e9565b50600082141562000663576040517f2e07630000000000000000000000000000000000000000000000000000000000815260040160405180910390fd5b8060008190555050506200068160008483856200086960201b60201c565b505050565b60008373ffffffffffffffffffffffffffffffffffffffff1663150b7a02620006b46200086f60201b60201c565b8786866040518563ffffffff1660e01b8152600401620006d8949392919062000ab7565b602060405180830381600087803b158015620006f357600080fd5b505af19250505080156200072757506040513d601f19601f8201168201806040525081019062000724919062000b6d565b60015b620007a5573d80600081146200075a576040519150601f19603f3d011682016040523d82523d6000602084013e6200075f565b606091505b506000815114156200079d576040517fd1a57ed600000000000000000000000000000000000000000000000000000000815260040160405180910390fd5b805181602001fd5b63150b7a0260e01b7bffffffffffffffffffffffffffffffffffffffffffffffffffffffff1916817bffffffffffffffffffffffffffffffffffffffffffffffffffffffff191614915050949350505050565b50505050565b60008060e883901c905060e86200081d8686846200087760201b60201c565b62ffffff16901b9150509392505050565b60006001821460e11b9050919050565b600073ffffffffffffffffffffffffffffffffffffffff83169250814260a01b178317905092915050565b50505050565b600033905090565b60009392505050565b8280546200088e9062000bce565b90600052602060002090601f016020900481019282620008b25760008555620008fe565b82601f10620008cd57805160ff1916838001178555620008fe565b82800160010185558215620008fe579182015b82811115620008fd578251825591602001919060010190620008e0565b5b5090506200090d919062000911565b5090565b5b808211156200092c57600081600090555060010162000912565b5090565b600082825260208201905092915050565b7f4f776e61626c653a2063616c6c6572206973206e6f7420746865206f776e6572600082015250565b60006200097960208362000930565b9150620009868262000941565b602082019050919050565b60006020820190508181036000830152620009ac816200096a565b9050919050565b600073ffffffffffffffffffffffffffffffffffffffff82169050919050565b6000620009e082620009b3565b9050919050565b620009f281620009d3565b82525050565b6000819050919050565b62000a0d81620009f8565b82525050565b600081519050919050565b600082825260208201905092915050565b60005b8381101562000a4f57808201518184015260208101905062000a32565b8381111562000a5f576000848401525b50505050565b6000601f19601f8301169050919050565b600062000a838262000a13565b62000a8f818562000a1e565b935062000aa181856020860162000a2f565b62000aac8162000a65565b840191505092915050565b600060808201905062000ace6000830187620009e7565b62000add6020830186620009e7565b62000aec604083018562000a02565b818103606083015262000b00818462000a76565b905095945050505050565b600080fd5b60007fffffffff0000000000000000000000000000000000000000000000000000000082169050919050565b62000b478162000b10565b811462000b5357600080fd5b50565b60008151905062000b678162000b3c565b92915050565b60006020828403121562000b865762000b8562000b0b565b5b600062000b968482850162000b56565b91505092915050565b7f4e487b7100000000000000000000000000000000000000000000000000000000600052602260045260246000fd5b6000600282049050600182168062000be757607f821691505b6020821081141562000bfe5762000bfd62000b9f565b5b50919050565b613e5d8062000c146000396000f3fe6080604052600436106102ad5760003560e01c80637e04096911610175578063bdb4b848116100dc578063d5abeb0111610095578063e985e9c51161006f578063e985e9c514610a5e578063f2fde38b14610a9b578063f4fce61c14610ac4578063fa85c6cb14610aed576102ad565b8063d5abeb01146109df578063d6e7b8e414610a0a578063da3ef23f14610a35576102ad565b8063bdb4b848146108bb578063c1b19de6146108e6578063c668286214610911578063c87b56dd1461093c578063d2c777e614610979578063d4b0a23b146109b6576102ad565b80639c70b5121161012e5780639c70b512146107ce578063a0712d68146107f9578063a210c80414610815578063a22cb4651461083e578063b55cd04b14610867578063b88d4fde14610892576102ad565b80637e040969146106df578063800deb7e146106fb5780638545f4ea146107245780638da5cb5b1461074d57806395d89b41146107785780639c02757a146107a3576102ad565b80633ccfd60b116102195780636352211e116101d25780636352211e146105d1578063682a3ad61461060e5780636e3bd6b1146106395780636f8b44b01461066257806370a082311461068b578063715018a6146106c8576102ad565b80633ccfd60b146104d057806342842e0e146104da578063490645df146105035780634f558e791461054057806355f804b31461057d5780635c975abb146105a6576102ad565b8063095ea7b31161026b578063095ea7b3146103d45780631581b600146103fd57806318160ddd14610428578063239c70ae1461045357806323b872dd1461047e5780633c952764146104a7576102ad565b8062bad77a146102b257806301ffc9a7146102dd57806302329a291461031a57806306fdde0314610343578063081812fc1461036e578063088a4ed0146103ab575b600080fd5b3480156102be57600080fd5b506102c7610b2a565b6040516102d49190612cd7565b60405180910390f35b3480156102e957600080fd5b5061030460048036038101906102ff9190612d5e565b610b3d565b6040516103119190612cd7565b60405180910390f35b34801561032657600080fd5b50610341600480360381019061033c9190612db7565b610bcf565b005b34801561034f57600080fd5b50610358610bf4565b6040516103659190612e7d565b60405180910390f35b34801561037a57600080fd5b5061039560048036038101906103909190612ed5565b610c86565b6040516103a29190612f43565b60405180910390f35b3480156103b757600080fd5b506103d260048036038101906103cd9190612ed5565b610d05565b005b3480156103e057600080fd5b506103fb60048036038101906103f69190612f8a565b610d17565b005b34801561040957600080fd5b50610412610e5b565b60405161041f9190612f43565b60405180910390f35b34801561043457600080fd5b5061043d610e73565b60405161044a9190612fd9565b60405180910390f35b34801561045f57600080fd5b50610468610e8a565b6040516104759190612fd9565b60405180910390f35b34801561048a57600080fd5b506104a560048036038101906104a09190612ff4565b610e90565b005b3480156104b357600080fd5b506104ce60048036038101906104c99190612db7565b6111b5565b005b6104d86111da565b005b3480156104e657600080fd5b5061050160048036038101906104fc9190612ff4565b61126f565b005b34801561050f57600080fd5b5061052a60048036038101906105259190613047565b61128f565b6040516105379190612fd9565b60405180910390f35b34801561054c57600080fd5b5061056760048036038101906105629190612ed5565b6112e3565b6040516105749190612cd7565b60405180910390f35b34801561058957600080fd5b506105a4600480360381019061059f91906131a9565b6112f5565b005b3480156105b257600080fd5b506105bb611317565b6040516105c89190612cd7565b60405180910390f35b3480156105dd57600080fd5b506105f860048036038101906105f39190612ed5565b61132a565b6040516106059190612f43565b60405180910390f35b34801561061a57600080fd5b5061062361133c565b6040516106309190612fd9565b60405180910390f35b34801561064557600080fd5b50610660600480360381019061065b9190612ed5565b611342565b005b34801561066e57600080fd5b5061068960048036038101906106849190612ed5565b611354565b005b34801561069757600080fd5b506106b260048036038101906106ad9190613047565b611366565b6040516106bf9190612fd9565b60405180910390f35b3480156106d457600080fd5b506106dd61141f565b005b6106f960048036038101906106f491906132ba565b611433565b005b34801561070757600080fd5b50610722600480360381019061071d9190612db7565b61174a565b005b34801561073057600080fd5b5061074b60048036038101906107469190612ed5565b61176f565b005b34801561075957600080fd5b50610762611781565b60405161076f9190612f43565b60405180910390f35b34801561078457600080fd5b5061078d6117ab565b60405161079a9190612e7d565b60405180910390f35b3480156107af57600080fd5b506107b861183d565b6040516107c59190612fd9565b60405180910390f35b3480156107da57600080fd5b506107e3611843565b6040516107f09190612cd7565b60405180910390f35b610813600480360381019061080e9190612ed5565b611856565b005b34801561082157600080fd5b5061083c60048036038101906108379190612ed5565b611ad0565b005b34801561084a57600080fd5b5061086560048036038101906108609190613303565b611ae2565b005b34801561087357600080fd5b5061087c611c5a565b6040516108899190612fd9565b60405180910390f35b34801561089e57600080fd5b506108b960048036038101906108b491906133e4565b611c69565b005b3480156108c757600080fd5b506108d0611cdc565b6040516108dd9190612fd9565b60405180910390f35b3480156108f257600080fd5b506108fb611ce2565b6040516109089190612fd9565b60405180910390f35b34801561091d57600080fd5b50610926611ce8565b6040516109339190612e7d565b60405180910390f35b34801561094857600080fd5b50610963600480360381019061095e9190612ed5565b611d76565b6040516109709190612e7d565b60405180910390f35b34801561098557600080fd5b506109a0600480360381019061099b9190613047565b611daa565b6040516109ad9190612fd9565b60405180910390f35b3480156109c257600080fd5b506109dd60048036038101906109d8919061352a565b611dc2565b005b3480156109eb57600080fd5b506109f4611e74565b604051610a019190612fd9565b60405180910390f35b348015610a1657600080fd5b50610a1f611e7a565b604051610a2c9190612fd9565b60405180910390f35b348015610a4157600080fd5b50610a5c6004803603810190610a5791906131a9565b611eab565b005b348015610a6a57600080fd5b50610a856004803603810190610a8091906135a2565b611ecd565b604051610a929190612cd7565b60405180910390f35b348015610aa757600080fd5b50610ac26004803603810190610abd9190613047565b611f61565b005b348015610ad057600080fd5b50610aeb6004803603810190610ae69190612ed5565b611fe5565b005b348015610af957600080fd5b50610b146004803603810190610b0f9190613047565b611ff7565b604051610b219190612fd9565b60405180910390f35b601160019054906101000a900460ff1681565b60006301ffc9a760e01b827bffffffffffffffffffffffffffffffffffffffffffffffffffffffff19161480610b9857506380ac58cd60e01b827bffffffffffffffffffffffffffffffffffffffffffffffffffffffff1916145b80610bc85750635b5e139f60e01b827bffffffffffffffffffffffffffffffffffffffffffffffffffffffff1916145b9050919050565b610bd7612040565b80601160006101000a81548160ff02191690831515021790555050565b606060028054610c0390613611565b80601f0160208091040260200160405190810160405280929190818152602001828054610c2f90613611565b8015610c7c5780601f10610c5157610100808354040283529160200191610c7c565b820191906000526020600020905b815481529060010190602001808311610c5f57829003601f168201915b5050505050905090565b6000610c91826120be565b610cc7576040517fcf4700e400000000000000000000000000000000000000000000000000000000815260040160405180910390fd5b6006600083815260200190815260200160002060000160009054906101000a900473ffffffffffffffffffffffffffffffffffffffff169050919050565b610d0d612040565b80600f8190555050565b6000610d228261132a565b90508073ffffffffffffffffffffffffffffffffffffffff16610d4361211d565b73ffffffffffffffffffffffffffffffffffffffff1614610da657610d6f81610d6a61211d565b611ecd565b610da5576040517fcfb3b94200000000000000000000000000000000000000000000000000000000815260040160405180910390fd5b5b826006600084815260200190815260200160002060000160006101000a81548173ffffffffffffffffffffffffffffffffffffffff021916908373ffffffffffffffffffffffffffffffffffffffff160217905550818373ffffffffffffffffffffffffffffffffffffffff168273ffffffffffffffffffffffffffffffffffffffff167f8c5be1e5ebec7d5bd14f71427d1e84f3dd0314c0f7b2291e5b200ac8c7c3b92560405160405180910390a4505050565b730195fcc920eee9a2726a5762b88720f6ac03a57781565b6000610e7d612125565b6001546000540303905090565b600f5481565b6000610e9b8261212e565b90508373ffffffffffffffffffffffffffffffffffffffff168173ffffffffffffffffffffffffffffffffffffffff1614610f02576040517fa114810000000000000000000000000000000000000000000000000000000000815260040160405180910390fd5b600080610f0e846121fc565b91509150610f248187610f1f61211d565b612223565b610f7057610f3986610f3461211d565b611ecd565b610f6f576040517f59c896be00000000000000000000000000000000000000000000000000000000815260040160405180910390fd5b5b600073ffffffffffffffffffffffffffffffffffffffff168573ffffffffffffffffffffffffffffffffffffffff161415610fd7576040517fea553b3400000000000000000000000000000000000000000000000000000000815260040160405180910390fd5b610fe48686866001612267565b8015610fef57600082555b600560008773ffffffffffffffffffffffffffffffffffffffff1673ffffffffffffffffffffffffffffffffffffffff168152602001908152602001600020600081546001900391905081905550600560008673ffffffffffffffffffffffffffffffffffffffff1673ffffffffffffffffffffffffffffffffffffffff16815260200190815260200160002060008154600101919050819055506110bd8561109988888761226d565b7c020000000000000000000000000000000000000000000000000000000017612295565b600460008681526020019081526020016000208190555060007c020000000000000000000000000000000000000000000000000000000084161415611145576000600185019050600060046000838152602001908152602001600020541415611143576000548114611142578360046000838152602001908152602001600020819055505b5b505b838573ffffffffffffffffffffffffffffffffffffffff168773ffffffffffffffffffffffffffffffffffffffff167fddf252ad1be2c89b69c2b068fc378daa952ba7f163c4a11628f55a4df523b3ef60405160405180910390a46111ad86868660016122c0565b505050505050565b6111bd612040565b80601160026101000a81548160ff02191690831515021790555050565b6111e2612040565b6000730195fcc920eee9a2726a5762b88720f6ac03a57773ffffffffffffffffffffffffffffffffffffffff164760405161121c90613674565b60006040518083038185875af1925050503d8060008114611259576040519150601f19603f3d011682016040523d82523d6000602084013e61125e565b606091505b505090508061126c57600080fd5b50565b61128a83838360405180602001604052806000815250611c69565b505050565b600060011515601160029054906101000a900460ff16151514156112d85760006112b883611ff7565b90506010548111156112cf576010549150506112de565b809150506112de565b600f5490505b919050565b60006112ee826120be565b9050919050565b6112fd612040565b8060099080519060200190611313929190612c19565b5050565b601160009054906101000a900460ff1681565b60006113358261212e565b9050919050565b600e5481565b61134a612040565b80600c8190555050565b61135c612040565b80600d8190555050565b60008073ffffffffffffffffffffffffffffffffffffffff168273ffffffffffffffffffffffffffffffffffffffff1614156113ce576040517f8f4eb60400000000000000000000000000000000000000000000000000000000815260040160405180910390fd5b67ffffffffffffffff600560008473ffffffffffffffffffffffffffffffffffffffff1673ffffffffffffffffffffffffffffffffffffffff16815260200190815260200160002054169050919050565b611427612040565b61143160006122c6565b565b601160019054906101000a900460ff1615611483576040517f08c379a000000000000000000000000000000000000000000000000000000000815260040161147a906136d5565b60405180910390fd5b805161148d611e7a565b8111156114cf576040517f08c379a00000000000000000000000000000000000000000000000000000000081526004016114c690613767565b60405180910390fd5b815180600b546114df91906137b6565b341015611521576040517f08c379a00000000000000000000000000000000000000000000000000000000081526004016115189061385c565b60405180910390fd5b8251600e5461152e61238c565b82611539919061387c565b111561157a576040517f08c379a00000000000000000000000000000000000000000000000000000000081526004016115719061391e565b60405180910390fd5b8351601160029054906101000a900460ff1615611697576000601260003373ffffffffffffffffffffffffffffffffffffffff1673ffffffffffffffffffffffffffffffffffffffff168152602001908152602001600020541415611614576040517f08c379a000000000000000000000000000000000000000000000000000000000815260040161160b9061398a565b60405180910390fd5b80601260003373ffffffffffffffffffffffffffffffffffffffff1673ffffffffffffffffffffffffffffffffffffffff168152602001908152602001600020541015611696576040517f08c379a000000000000000000000000000000000000000000000000000000000815260040161168d906139f6565b60405180910390fd5b5b6116a18551612396565b60005b85518110156117305760008682815181106116c2576116c1613a16565b5b602002602001015190506116d58161132a565b73ffffffffffffffffffffffffffffffffffffffff166116f361243d565b73ffffffffffffffffffffffffffffffffffffffff161461171357600080fd5b61171c81612445565b50808061172890613a45565b9150506116a4565b5061174361173c61243d565b8651612453565b5050505050565b611752612040565b80601160016101000a81548160ff02191690831515021790555050565b611777612040565b80600b8190555050565b6000600860009054906101000a900473ffffffffffffffffffffffffffffffffffffffff16905090565b6060600380546117ba90613611565b80601f01602080910402602001604051908101604052809291908181526020018280546117e690613611565b80156118335780601f1061180857610100808354040283529160200191611833565b820191906000526020600020905b81548152906001019060200180831161181657829003601f168201915b5050505050905090565b600c5481565b601160029054906101000a900460ff1681565b601160009054906101000a900460ff16156118a6576040517f08c379a000000000000000000000000000000000000000000000000000000000815260040161189d90613ada565b60405180910390fd5b80600d546118b2610e73565b826118bd919061387c565b11156118fe576040517f08c379a00000000000000000000000000000000000000000000000000000000081526004016118f5906136d5565b60405180910390fd5b81611907611e7a565b811115611949576040517f08c379a000000000000000000000000000000000000000000000000000000000815260040161194090613767565b60405180910390fd5b8280600b5461195891906137b6565b34101561199a576040517f08c379a00000000000000000000000000000000000000000000000000000000081526004016119919061385c565b60405180910390fd5b83601160029054906101000a900460ff1615611ab6576000601260003373ffffffffffffffffffffffffffffffffffffffff1673ffffffffffffffffffffffffffffffffffffffff168152602001908152602001600020541415611a33576040517f08c379a0000000000000000000000000000000000000000000000000000000008152600401611a2a9061398a565b60405180910390fd5b80601260003373ffffffffffffffffffffffffffffffffffffffff1673ffffffffffffffffffffffffffffffffffffffff168152602001908152602001600020541015611ab5576040517f08c379a0000000000000000000000000000000000000000000000000000000008152600401611aac906139f6565b60405180910390fd5b5b611abf85612396565b611ac93386612453565b5050505050565b611ad8612040565b80600e8190555050565b611aea61211d565b73ffffffffffffffffffffffffffffffffffffffff168273ffffffffffffffffffffffffffffffffffffffff161415611b4f576040517fb06307db00000000000000000000000000000000000000000000000000000000815260040160405180910390fd5b8060076000611b5c61211d565b73ffffffffffffffffffffffffffffffffffffffff1673ffffffffffffffffffffffffffffffffffffffff16815260200190815260200160002060008473ffffffffffffffffffffffffffffffffffffffff1673ffffffffffffffffffffffffffffffffffffffff16815260200190815260200160002060006101000a81548160ff0219169083151502179055508173ffffffffffffffffffffffffffffffffffffffff16611c0961211d565b73ffffffffffffffffffffffffffffffffffffffff167f17307eab39ab6107e8899845ad3d59bd9653f200f220920489ca2b5937696c3183604051611c4e9190612cd7565b60405180910390a35050565b6000611c6461238c565b905090565b611c74848484610e90565b60008373ffffffffffffffffffffffffffffffffffffffff163b14611cd657611c9f84848484612471565b611cd5576040517fd1a57ed600000000000000000000000000000000000000000000000000000000815260040160405180910390fd5b5b50505050565b600b5481565b60105481565b600a8054611cf590613611565b80601f0160208091040260200160405190810160405280929190818152602001828054611d2190613611565b8015611d6e5780601f10611d4357610100808354040283529160200191611d6e565b820191906000526020600020905b815481529060010190602001808311611d5157829003601f168201915b505050505081565b6060611d81826125d1565b600a604051602001611d94929190613bca565b6040516020818303038152906040529050919050565b60126020528060005260406000206000915090505481565b611dca612040565b8051825114611dd857600080fd5b60005b8251811015611e6f57818181518110611df757611df6613a16565b5b602002602001015160126000858481518110611e1657611e15613a16565b5b602002602001015173ffffffffffffffffffffffffffffffffffffffff1673ffffffffffffffffffffffffffffffffffffffff168152602001908152602001600020819055508080611e6790613a45565b915050611ddb565b505050565b600d5481565b600060011515601160029054906101000a900460ff1615151415611ea2576010549050611ea8565b600f5490505b90565b611eb3612040565b80600a9080519060200190611ec9929190612c19565b5050565b6000600760008473ffffffffffffffffffffffffffffffffffffffff1673ffffffffffffffffffffffffffffffffffffffff16815260200190815260200160002060008373ffffffffffffffffffffffffffffffffffffffff1673ffffffffffffffffffffffffffffffffffffffff16815260200190815260200160002060009054906101000a900460ff16905092915050565b611f69612040565b600073ffffffffffffffffffffffffffffffffffffffff168173ffffffffffffffffffffffffffffffffffffffff161415611fd9576040517f08c379a0000000000000000000000000000000000000000000000000000000008152600401611fd090613c60565b60405180910390fd5b611fe2816122c6565b50565b611fed612040565b8060108190555050565b6000601260008373ffffffffffffffffffffffffffffffffffffffff1673ffffffffffffffffffffffffffffffffffffffff168152602001908152602001600020549050919050565b61204861243d565b73ffffffffffffffffffffffffffffffffffffffff16612066611781565b73ffffffffffffffffffffffffffffffffffffffff16146120bc576040517f08c379a00000000000000000000000000000000000000000000000000000000081526004016120b390613ccc565b60405180910390fd5b565b6000816120c9612125565b111580156120d8575060005482105b8015612116575060007c0100000000000000000000000000000000000000000000000000000000600460008581526020019081526020016000205416145b9050919050565b600033905090565b60006001905090565b6000808290508061213d612125565b116121c5576000548110156121c45760006004600083815260200190815260200160002054905060007c0100000000000000000000000000000000000000000000000000000000821614156121c2575b60008114156121b857600460008360019003935083815260200190815260200160002054905061218d565b80925050506121f7565b505b5b6040517fdf2d9b4200000000000000000000000000000000000000000000000000000000815260040160405180910390fd5b919050565b60008060006006600085815260200190815260200160002090508092508254915050915091565b600073ffffffffffffffffffffffffffffffffffffffff8316925073ffffffffffffffffffffffffffffffffffffffff821691508382148383141790509392505050565b50505050565b60008060e883901c905060e8612284868684612670565b62ffffff16901b9150509392505050565b600073ffffffffffffffffffffffffffffffffffffffff83169250814260a01b178317905092915050565b50505050565b6000600860009054906101000a900473ffffffffffffffffffffffffffffffffffffffff16905081600860006101000a81548173ffffffffffffffffffffffffffffffffffffffff021916908373ffffffffffffffffffffffffffffffffffffffff1602179055508173ffffffffffffffffffffffffffffffffffffffff168173ffffffffffffffffffffffffffffffffffffffff167f8be0079c531659141344cd1fd0a4f28419497f9722a3daafe3b4186f6b6457e060405160405180910390a35050565b6000600154905090565b601160029054906101000a900460ff161561243a5780601260003373ffffffffffffffffffffffffffffffffffffffff1673ffffffffffffffffffffffffffffffffffffffff168152602001908152602001600020546123f69190613cec565b601260003373ffffffffffffffffffffffffffffffffffffffff1673ffffffffffffffffffffffffffffffffffffffff168152602001908152602001600020819055505b50565b600033905090565b612450816000612679565b50565b61246d8282604051806020016040528060008152506128cd565b5050565b60008373ffffffffffffffffffffffffffffffffffffffff1663150b7a0261249761211d565b8786866040518563ffffffff1660e01b81526004016124b99493929190613d75565b602060405180830381600087803b1580156124d357600080fd5b505af192505050801561250457506040513d601f19601f820116820180604052508101906125019190613dd6565b60015b61257e573d8060008114612534576040519150601f19603f3d011682016040523d82523d6000602084013e612539565b606091505b50600081511415612576576040517fd1a57ed600000000000000000000000000000000000000000000000000000000815260040160405180910390fd5b805181602001fd5b63150b7a0260e01b7bffffffffffffffffffffffffffffffffffffffffffffffffffffffff1916817bffffffffffffffffffffffffffffffffffffffffffffffffffffffff191614915050949350505050565b60606125dc826120be565b612612576040517fa14c4b5000000000000000000000000000000000000000000000000000000000815260040160405180910390fd5b600061261c61296a565b905060008151141561263d5760405180602001604052806000815250612668565b80612647846129fc565b604051602001612658929190613e03565b6040516020818303038152906040525b915050919050565b60009392505050565b60006126848361212e565b90506000819050600080612697866121fc565b915091508415612700576126b381846126ae61211d565b612223565b6126ff576126c8836126c361211d565b611ecd565b6126fe576040517f59c896be00000000000000000000000000000000000000000000000000000000815260040160405180910390fd5b5b5b61270e836000886001612267565b801561271957600082555b600160806001901b03600560008573ffffffffffffffffffffffffffffffffffffffff1673ffffffffffffffffffffffffffffffffffffffff168152602001908152602001600020600082825401925050819055506127c18361277e8560008861226d565b7c02000000000000000000000000000000000000000000000000000000007c01000000000000000000000000000000000000000000000000000000001717612295565b600460008881526020019081526020016000208190555060007c020000000000000000000000000000000000000000000000000000000085161415612849576000600187019050600060046000838152602001908152602001600020541415612847576000548114612846578460046000838152602001908152602001600020819055505b5b505b85600073ffffffffffffffffffffffffffffffffffffffff168473ffffffffffffffffffffffffffffffffffffffff167fddf252ad1be2c89b69c2b068fc378daa952ba7f163c4a11628f55a4df523b3ef60405160405180910390a46128b38360008860016122c0565b600160008154809291906001019190505550505050505050565b6128d78383612a4c565b60008373ffffffffffffffffffffffffffffffffffffffff163b1461296557600080549050600083820390505b6129176000868380600101945086612471565b61294d576040517fd1a57ed600000000000000000000000000000000000000000000000000000000815260040160405180910390fd5b81811061290457816000541461296257600080fd5b50505b505050565b60606009805461297990613611565b80601f01602080910402602001604051908101604052809291908181526020018280546129a590613611565b80156129f25780601f106129c7576101008083540402835291602001916129f2565b820191906000526020600020905b8154815290600101906020018083116129d557829003601f168201915b5050505050905090565b606060806040510190508060405280825b600115612a3857600183039250600a81066030018353600a8104905080612a3357612a38565b612a0d565b508181036020830392508083525050919050565b6000805490506000821415612a8d576040517fb562e8dd00000000000000000000000000000000000000000000000000000000815260040160405180910390fd5b612a9a6000848385612267565b600160406001901b178202600560008573ffffffffffffffffffffffffffffffffffffffff1673ffffffffffffffffffffffffffffffffffffffff16815260200190815260200160002060008282540192505081905550612b1183612b02600086600061226d565b612b0b85612c09565b17612295565b6004600083815260200190815260200160002081905550600080838301905073ffffffffffffffffffffffffffffffffffffffff85169150828260007fddf252ad1be2c89b69c2b068fc378daa952ba7f163c4a11628f55a4df523b3ef600080a4600183015b818114612bb257808360007fddf252ad1be2c89b69c2b068fc378daa952ba7f163c4a11628f55a4df523b3ef600080a4600181019050612b77565b506000821415612bee576040517f2e07630000000000000000000000000000000000000000000000000000000000815260040160405180910390fd5b806000819055505050612c0460008483856122c0565b505050565b60006001821460e11b9050919050565b828054612c2590613611565b90600052602060002090601f016020900481019282612c475760008555612c8e565b82601f10612c6057805160ff1916838001178555612c8e565b82800160010185558215612c8e579182015b82811115612c8d578251825591602001919060010190612c72565b5b509050612c9b9190612c9f565b5090565b5b80821115612cb8576000816000905550600101612ca0565b5090565b60008115159050919050565b612cd181612cbc565b82525050565b6000602082019050612cec6000830184612cc8565b92915050565b6000604051905090565b600080fd5b600080fd5b60007fffffffff0000000000000000000000000000000000000000000000000000000082169050919050565b612d3b81612d06565b8114612d4657600080fd5b50565b600081359050612d5881612d32565b92915050565b600060208284031215612d7457612d73612cfc565b5b6000612d8284828501612d49565b91505092915050565b612d9481612cbc565b8114612d9f57600080fd5b50565b600081359050612db181612d8b565b92915050565b600060208284031215612dcd57612dcc612cfc565b5b6000612ddb84828501612da2565b91505092915050565b600081519050919050565b600082825260208201905092915050565b60005b83811015612e1e578082015181840152602081019050612e03565b83811115612e2d576000848401525b50505050565b6000601f19601f8301169050919050565b6000612e4f82612de4565b612e598185612def565b9350612e69818560208601612e00565b612e7281612e33565b840191505092915050565b60006020820190508181036000830152612e978184612e44565b905092915050565b6000819050919050565b612eb281612e9f565b8114612ebd57600080fd5b50565b600081359050612ecf81612ea9565b92915050565b600060208284031215612eeb57612eea612cfc565b5b6000612ef984828501612ec0565b91505092915050565b600073ffffffffffffffffffffffffffffffffffffffff82169050919050565b6000612f2d82612f02565b9050919050565b612f3d81612f22565b82525050565b6000602082019050612f586000830184612f34565b92915050565b612f6781612f22565b8114612f7257600080fd5b50565b600081359050612f8481612f5e565b92915050565b60008060408385031215612fa157612fa0612cfc565b5b6000612faf85828601612f75565b9250506020612fc085828601612ec0565b9150509250929050565b612fd381612e9f565b82525050565b6000602082019050612fee6000830184612fca565b92915050565b60008060006060848603121561300d5761300c612cfc565b5b600061301b86828701612f75565b935050602061302c86828701612f75565b925050604061303d86828701612ec0565b9150509250925092565b60006020828403121561305d5761305c612cfc565b5b600061306b84828501612f75565b91505092915050565b600080fd5b600080fd5b7f4e487b7100000000000000000000000000000000000000000000000000000000600052604160045260246000fd5b6130b682612e33565b810181811067ffffffffffffffff821117156130d5576130d461307e565b5b80604052505050565b60006130e8612cf2565b90506130f482826130ad565b919050565b600067ffffffffffffffff8211156131145761311361307e565b5b61311d82612e33565b9050602081019050919050565b82818337600083830152505050565b600061314c613147846130f9565b6130de565b90508281526020810184848401111561316857613167613079565b5b61317384828561312a565b509392505050565b600082601f8301126131905761318f613074565b5b81356131a0848260208601613139565b91505092915050565b6000602082840312156131bf576131be612cfc565b5b600082013567ffffffffffffffff8111156131dd576131dc612d01565b5b6131e98482850161317b565b91505092915050565b600067ffffffffffffffff82111561320d5761320c61307e565b5b602082029050602081019050919050565b600080fd5b6000613236613231846131f2565b6130de565b905080838252602082019050602084028301858111156132595761325861321e565b5b835b81811015613282578061326e8882612ec0565b84526020840193505060208101905061325b565b5050509392505050565b600082601f8301126132a1576132a0613074565b5b81356132b1848260208601613223565b91505092915050565b6000602082840312156132d0576132cf612cfc565b5b600082013567ffffffffffffffff8111156132ee576132ed612d01565b5b6132fa8482850161328c565b91505092915050565b6000806040838503121561331a57613319612cfc565b5b600061332885828601612f75565b925050602061333985828601612da2565b9150509250929050565b600067ffffffffffffffff82111561335e5761335d61307e565b5b61336782612e33565b9050602081019050919050565b600061338761338284613343565b6130de565b9050828152602081018484840111156133a3576133a2613079565b5b6133ae84828561312a565b509392505050565b600082601f8301126133cb576133ca613074565b5b81356133db848260208601613374565b91505092915050565b600080600080608085870312156133fe576133fd612cfc565b5b600061340c87828801612f75565b945050602061341d87828801612f75565b935050604061342e87828801612ec0565b925050606085013567ffffffffffffffff81111561344f5761344e612d01565b5b61345b878288016133b6565b91505092959194509250565b600067ffffffffffffffff8211156134825761348161307e565b5b602082029050602081019050919050565b60006134a66134a184613467565b6130de565b905080838252602082019050602084028301858111156134c9576134c861321e565b5b835b818110156134f257806134de8882612f75565b8452602084019350506020810190506134cb565b5050509392505050565b600082601f83011261351157613510613074565b5b8135613521848260208601613493565b91505092915050565b6000806040838503121561354157613540612cfc565b5b600083013567ffffffffffffffff81111561355f5761355e612d01565b5b61356b858286016134fc565b925050602083013567ffffffffffffffff81111561358c5761358b612d01565b5b6135988582860161328c565b9150509250929050565b600080604083850312156135b9576135b8612cfc565b5b60006135c785828601612f75565b92505060206135d885828601612f75565b9150509250929050565b7f4e487b7100000000000000000000000000000000000000000000000000000000600052602260045260246000fd5b6000600282049050600182168061362957607f821691505b6020821081141561363d5761363c6135e2565b5b50919050565b600081905092915050565b50565b600061365e600083613643565b91506136698261364e565b600082019050919050565b600061367f82613651565b9150819050919050565b7f6275726e206d696e742069732070617573656400000000000000000000000000600082015250565b60006136bf601383612def565b91506136ca82613689565b602082019050919050565b600060208201905081810360008301526136ee816136b2565b9050919050565b7f636c61696d206973206f766572206d6178207175616e74697479206174206f6e60008201527f6365000000000000000000000000000000000000000000000000000000000000602082015250565b6000613751602283612def565b915061375c826136f5565b604082019050919050565b6000602082019050818103600083015261378081613744565b9050919050565b7f4e487b7100000000000000000000000000000000000000000000000000000000600052601160045260246000fd5b60006137c182612e9f565b91506137cc83612e9f565b9250817fffffffffffffffffffffffffffffffffffffffffffffffffffffffffffffffff048311821515161561380557613804613787565b5b828202905092915050565b7f6e6f7420656e6f75676820657468000000000000000000000000000000000000600082015250565b6000613846600e83612def565b915061385182613810565b602082019050919050565b6000602082019050818103600083015261387581613839565b9050919050565b600061388782612e9f565b915061389283612e9f565b9250827fffffffffffffffffffffffffffffffffffffffffffffffffffffffffffffffff038211156138c7576138c6613787565b5b828201905092915050565b7f6f76657220746f74616c206275726e20636f7374000000000000000000000000600082015250565b6000613908601483612def565b9150613913826138d2565b602082019050919050565b60006020820190508181036000830152613937816138fb565b9050919050565b7f73656e646572206973206e6f742077686974656c697374656400000000000000600082015250565b6000613974601983612def565b915061397f8261393e565b602082019050919050565b600060208201905081810360008301526139a381613967565b9050919050565b7f6f7665722077686974656c697374656420636f756e7400000000000000000000600082015250565b60006139e0601683612def565b91506139eb826139aa565b602082019050919050565b60006020820190508181036000830152613a0f816139d3565b9050919050565b7f4e487b7100000000000000000000000000000000000000000000000000000000600052603260045260246000fd5b6000613a5082612e9f565b91507fffffffffffffffffffffffffffffffffffffffffffffffffffffffffffffffff821415613a8357613a82613787565b5b600182019050919050565b7f6d696e7420697320706175736564000000000000000000000000000000000000600082015250565b6000613ac4600e83612def565b9150613acf82613a8e565b602082019050919050565b60006020820190508181036000830152613af381613ab7565b9050919050565b600081905092915050565b6000613b1082612de4565b613b1a8185613afa565b9350613b2a818560208601612e00565b80840191505092915050565b60008190508160005260206000209050919050565b60008154613b5881613611565b613b628186613afa565b94506001821660008114613b7d5760018114613b8e57613bc1565b60ff19831686528186019350613bc1565b613b9785613b36565b60005b83811015613bb957815481890152600182019150602081019050613b9a565b838801955050505b50505092915050565b6000613bd68285613b05565b9150613be28284613b4b565b91508190509392505050565b7f4f776e61626c653a206e6577206f776e657220697320746865207a65726f206160008201527f6464726573730000000000000000000000000000000000000000000000000000602082015250565b6000613c4a602683612def565b9150613c5582613bee565b604082019050919050565b60006020820190508181036000830152613c7981613c3d565b9050919050565b7f4f776e61626c653a2063616c6c6572206973206e6f7420746865206f776e6572600082015250565b6000613cb6602083612def565b9150613cc182613c80565b602082019050919050565b60006020820190508181036000830152613ce581613ca9565b9050919050565b6000613cf782612e9f565b9150613d0283612e9f565b925082821015613d1557613d14613787565b5b828203905092915050565b600081519050919050565b600082825260208201905092915050565b6000613d4782613d20565b613d518185613d2b565b9350613d61818560208601612e00565b613d6a81612e33565b840191505092915050565b6000608082019050613d8a6000830187612f34565b613d976020830186612f34565b613da46040830185612fca565b8181036060830152613db68184613d3c565b905095945050505050565b600081519050613dd081612d32565b92915050565b600060208284031215613dec57613deb612cfc565b5b6000613dfa84828501613dc1565b91505092915050565b6000613e0f8285613b05565b9150613e1b8284613b05565b9150819050939250505056fea264697066735822122009ef03a19adc8712eccd7950844fa4c313310390c2b6c4e62b925aef37758c2564736f6c63430008090033697066733a2f2f516d534671445547565350394a596e69445073334841796e72433565515355796f4473774456464477314350354a",
  "linkReferences": {},
  "deployedLinkReferences": {}
}