{
  "_format": "hh-sol-artifact-1",
  "contractName": "MyContract",
  "sourceName": "contracts/myContract.sol",
  "abi": [
    {
      "inputs": [],
      "stateMutability": "nonpayable",
      "type": "constructor"
    },
    {
      "inputs": [],
      "name": "ApprovalCallerNotOwnerNorApproved",
      "type": "error"
    },
    {
      "inputs": [],
      "name": "ApprovalQueryForNonexistentToken",
      "type": "error"
    },
    {
      "inputs": [],
      "name": "ApproveToCaller",
      "type": "error"
    },
    {
      "inputs": [],
      "name": "BalanceQueryForZeroAddress",
      "type": "error"
    },
    {
      "inputs": [],
      "name": "MintERC2309QuantityExceedsLimit",
      "type": "error"
    },
    {
      "inputs": [],
      "name": "MintToZeroAddress",
      "type": "error"
    },
    {
      "inputs": [],
      "name": "MintZeroQuantity",
      "type": "error"
    },
    {
      "inputs": [],
      "name": "OwnerQueryForNonexistentToken",
      "type": "error"
    },
    {
      "inputs": [],
      "name": "OwnershipNotInitializedForExtraData",
      "type": "error"
    },
    {
      "inputs": [],
      "name": "TransferCallerNotOwnerNorApproved",
      "type": "error"
    },
    {
      "inputs": [],
      "name": "TransferFromIncorrectOwner",
      "type": "error"
    },
    {
      "inputs": [],
      "name": "TransferToNonERC721ReceiverImplementer",
      "type": "error"
    },
    {
      "inputs": [],
      "name": "TransferToZeroAddress",
      "type": "error"
    },
    {
      "inputs": [],
      "name": "URIQueryForNonexistentToken",
      "type": "error"
    },
    {
      "anonymous": false,
      "inputs": [
        {
          "indexed": true,
          "internalType": "address",
          "name": "owner",
          "type": "address"
        },
        {
          "indexed": true,
          "internalType": "address",
          "name": "approved",
          "type": "address"
        },
        {
          "indexed": true,
          "internalType": "uint256",
          "name": "tokenId",
          "type": "uint256"
        }
      ],
      "name": "Approval",
      "type": "event"
    },
    {
      "anonymous": false,
      "inputs": [
        {
          "indexed": true,
          "internalType": "address",
          "name": "owner",
          "type": "address"
        },
        {
          "indexed": true,
          "internalType": "address",
          "name": "operator",
          "type": "address"
        },
        {
          "indexed": false,
          "internalType": "bool",
          "name": "approved",
          "type": "bool"
        }
      ],
      "name": "ApprovalForAll",
      "type": "event"
    },
    {
      "anonymous": false,
      "inputs": [
        {
          "indexed": true,
          "internalType": "uint256",
          "name": "fromTokenId",
          "type": "uint256"
        },
        {
          "indexed": false,
          "internalType": "uint256",
          "name": "toTokenId",
          "type": "uint256"
        },
        {
          "indexed": true,
          "internalType": "address",
          "name": "from",
          "type": "address"
        },
        {
          "indexed": true,
          "internalType": "address",
          "name": "to",
          "type": "address"
        }
      ],
      "name": "ConsecutiveTransfer",
      "type": "event"
    },
    {
      "anonymous": false,
      "inputs": [
        {
          "indexed": true,
          "internalType": "address",
          "name": "previousOwner",
          "type": "address"
        },
        {
          "indexed": true,
          "internalType": "address",
          "name": "newOwner",
          "type": "address"
        }
      ],
      "name": "OwnershipTransferred",
      "type": "event"
    },
    {
      "anonymous": false,
      "inputs": [
        {
          "indexed": true,
          "internalType": "address",
          "name": "from",
          "type": "address"
        },
        {
          "indexed": true,
          "internalType": "address",
          "name": "to",
          "type": "address"
        },
        {
          "indexed": true,
          "internalType": "uint256",
          "name": "tokenId",
          "type": "uint256"
        }
      ],
      "name": "Transfer",
      "type": "event"
    },
    {
      "inputs": [
        {
          "internalType": "address[]",
          "name": "addresses",
          "type": "address[]"
        },
        {
          "internalType": "uint256[]",
          "name": "counts",
          "type": "uint256[]"
        }
      ],
      "name": "addWhitelists",
      "outputs": [],
      "stateMutability": "nonpayable",
      "type": "function"
    },
    {
      "inputs": [
        {
          "internalType": "address",
          "name": "to",
          "type": "address"
        },
        {
          "internalType": "uint256",
          "name": "tokenId",
          "type": "uint256"
        }
      ],
      "name": "approve",
      "outputs": [],
      "stateMutability": "nonpayable",
      "type": "function"
    },
    {
      "inputs": [
        {
          "internalType": "address",
          "name": "owner",
          "type": "address"
        }
      ],
      "name": "balanceOf",
      "outputs": [
        {
          "internalType": "uint256",
          "name": "",
          "type": "uint256"
        }
      ],
      "stateMutability": "view",
      "type": "function"
    },
    {
      "inputs": [],
      "name": "baseExtension",
      "outputs": [
        {
          "internalType": "string",
          "name": "",
          "type": "string"
        }
      ],
      "stateMutability": "view",
      "type": "function"
    },
    {
      "inputs": [],
      "name": "baseURI",
      "outputs": [
        {
          "internalType": "string",
          "name": "",
          "type": "string"
        }
      ],
      "stateMutability": "view",
      "type": "function"
    },
    {
      "inputs": [
        {
          "internalType": "uint256[]",
          "name": "burnTokenIds",
          "type": "uint256[]"
        }
      ],
      "name": "burnMint",
      "outputs": [],
      "stateMutability": "payable",
      "type": "function"
    },
    {
      "inputs": [],
      "name": "burnMintCost",
      "outputs": [
        {
          "internalType": "uint256",
          "name": "",
          "type": "uint256"
        }
      ],
      "stateMutability": "view",
      "type": "function"
    },
    {
      "inputs": [
        {
          "internalType": "bool",
          "name": "_value",
          "type": "bool"
        }
      ],
      "name": "burnMintPause",
      "outputs": [],
      "stateMutability": "nonpayable",
      "type": "function"
    },
    {
      "inputs": [],
      "name": "burnMintPaused",
      "outputs": [
        {
          "internalType": "bool",
          "name": "",
          "type": "bool"
        }
      ],
      "stateMutability": "view",
      "type": "function"
    },
    {
      "inputs": [
        {
          "internalType": "uint256",
          "name": "tokenId",
          "type": "uint256"
        }
      ],
      "name": "exists",
      "outputs": [
        {
          "internalType": "bool",
          "name": "",
          "type": "bool"
        }
      ],
      "stateMutability": "view",
      "type": "function"
    },
    {
      "inputs": [
        {
          "internalType": "address",
          "name": "value",
          "type": "address"
        }
      ],
      "name": "getActualMaxMintAmount",
      "outputs": [
        {
          "internalType": "uint256",
          "name": "",
          "type": "uint256"
        }
      ],
      "stateMutability": "view",
      "type": "function"
    },
    {
      "inputs": [
        {
          "internalType": "uint256",
          "name": "tokenId",
          "type": "uint256"
        }
      ],
      "name": "getApproved",
      "outputs": [
        {
          "internalType": "address",
          "name": "",
          "type": "address"
        }
      ],
      "stateMutability": "view",
      "type": "function"
    },
    {
      "inputs": [],
      "name": "getMaxMintAmount",
      "outputs": [
        {
          "internalType": "uint256",
          "name": "",
          "type": "uint256"
        }
      ],
      "stateMutability": "view",
      "type": "function"
    },
    {
      "inputs": [],
      "name": "getTotalBurned",
      "outputs": [
        {
          "internalType": "uint256",
          "name": "",
          "type": "uint256"
        }
      ],
      "stateMutability": "view",
      "type": "function"
    },
    {
      "inputs": [
        {
          "internalType": "address",
          "name": "value",
          "type": "address"
        }
      ],
      "name": "getWhitelistCount",
      "outputs": [
        {
          "internalType": "uint256",
          "name": "",
          "type": "uint256"
        }
      ],
      "stateMutability": "view",
      "type": "function"
    },
    {
      "inputs": [
        {
          "internalType": "address",
          "name": "owner",
          "type": "address"
        },
        {
          "internalType": "address",
          "name": "operator",
          "type": "address"
        }
      ],
      "name": "isApprovedForAll",
      "outputs": [
        {
          "internalType": "bool",
          "name": "",
          "type": "bool"
        }
      ],
      "stateMutability": "view",
      "type": "function"
    },
    {
      "inputs": [],
      "name": "maxBurnMint",
      "outputs": [
        {
          "internalType": "uint256",
          "name": "",
          "type": "uint256"
        }
      ],
      "stateMutability": "view",
      "type": "function"
    },
    {
      "inputs": [],
      "name": "maxMintAmount",
      "outputs": [
        {
          "internalType": "uint256",
          "name": "",
          "type": "uint256"
        }
      ],
      "stateMutability": "view",
      "type": "function"
    },
    {
      "inputs": [],
      "name": "maxMintAmountForWhitelist",
      "outputs": [
        {
          "internalType": "uint256",
          "name": "",
          "type": "uint256"
        }
      ],
      "stateMutability": "view",
      "type": "function"
    },
    {
      "inputs": [],
      "name": "maxSupply",
      "outputs": [
        {
          "internalType": "uint256",
          "name": "",
          "type": "uint256"
        }
      ],
      "stateMutability": "view",
      "type": "function"
    },
    {
      "inputs": [
        {
          "internalType": "uint256",
          "name": "quantity",
          "type": "uint256"
        }
      ],
      "name": "mint",
      "outputs": [],
      "stateMutability": "payable",
      "type": "function"
    },
    {
      "inputs": [],
      "name": "mintCost",
      "outputs": [
        {
          "internalType": "uint256",
          "name": "",
          "type": "uint256"
        }
      ],
      "stateMutability": "view",
      "type": "function"
    },
    {
      "inputs": [],
      "name": "name",
      "outputs": [
        {
          "internalType": "string",
          "name": "",
          "type": "string"
        }
      ],
      "stateMutability": "view",
      "type": "function"
    },
    {
      "inputs": [],
      "name": "onlyWhitelisted",
      "outputs": [
        {
          "internalType": "bool",
          "name": "",
          "type": "bool"
        }
      ],
      "stateMutability": "view",
      "type": "function"
    },
    {
      "inputs": [],
      "name": "owner",
      "outputs": [
        {
          "internalType": "address",
          "name": "",
          "type": "address"
        }
      ],
      "stateMutability": "view",
      "type": "function"
    },
    {
      "inputs": [
        {
          "internalType": "uint256",
          "name": "tokenId",
          "type": "uint256"
        }
      ],
      "name": "ownerOf",
      "outputs": [
        {
          "internalType": "address",
          "name": "",
          "type": "address"
        }
      ],
      "stateMutability": "view",
      "type": "function"
    },
    {
      "inputs": [
        {
          "internalType": "bool",
          "name": "_state",
          "type": "bool"
        }
      ],
      "name": "pause",
      "outputs": [],
      "stateMutability": "nonpayable",
      "type": "function"
    },
    {
      "inputs": [],
      "name": "paused",
      "outputs": [
        {
          "internalType": "bool",
          "name": "",
          "type": "bool"
        }
      ],
      "stateMutability": "view",
      "type": "function"
    },
    {
      "inputs": [],
      "name": "renounceOwnership",
      "outputs": [],
      "stateMutability": "nonpayable",
      "type": "function"
    },
    {
      "inputs": [
        {
          "internalType": "address",
          "name": "from",
          "type": "address"
        },
        {
          "internalType": "address",
          "name": "to",
          "type": "address"
        },
        {
          "internalType": "uint256",
          "name": "tokenId",
          "type": "uint256"
        }
      ],
      "name": "safeTransferFrom",
      "outputs": [],
      "stateMutability": "nonpayable",
      "type": "function"
    },
    {
      "inputs": [
        {
          "internalType": "address",
          "name": "from",
          "type": "address"
        },
        {
          "internalType": "address",
          "name": "to",
          "type": "address"
        },
        {
          "internalType": "uint256",
          "name": "tokenId",
          "type": "uint256"
        },
        {
          "internalType": "bytes",
          "name": "_data",
          "type": "bytes"
        }
      ],
      "name": "safeTransferFrom",
      "outputs": [],
      "stateMutability": "nonpayable",
      "type": "function"
    },
    {
      "inputs": [
        {
          "internalType": "address",
          "name": "operator",
          "type": "address"
        },
        {
          "internalType": "bool",
          "name": "approved",
          "type": "bool"
        }
      ],
      "name": "setApprovalForAll",
      "outputs": [],
      "stateMutability": "nonpayable",
      "type": "function"
    },
    {
      "inputs": [
        {
          "internalType": "string",
          "name": "_value",
          "type": "string"
        }
      ],
      "name": "setBaseExtension",
      "outputs": [],
      "stateMutability": "nonpayable",
      "type": "function"
    },
    {
      "inputs": [
        {
          "internalType": "string",
          "name": "_newBaseURI",
          "type": "string"
        }
      ],
      "name": "setBaseURI",
      "outputs": [],
      "stateMutability": "nonpayable",
      "type": "function"
    },
    {
      "inputs": [
        {
          "internalType": "uint256",
          "name": "_value",
          "type": "uint256"
        }
      ],
      "name": "setBurnMintCost",
      "outputs": [],
      "stateMutability": "nonpayable",
      "type": "function"
    },
    {
      "inputs": [
        {
          "internalType": "uint256",
          "name": "_value",
          "type": "uint256"
        }
      ],
      "name": "setMaxBurnMint",
      "outputs": [],
      "stateMutability": "nonpayable",
      "type": "function"
    },
    {
      "inputs": [
        {
          "internalType": "uint256",
          "name": "_newMaxMintAmount",
          "type": "uint256"
        }
      ],
      "name": "setMaxMintAmount",
      "outputs": [],
      "stateMutability": "nonpayable",
      "type": "function"
    },
    {
      "inputs": [
        {
          "internalType": "uint256",
          "name": "_value",
          "type": "uint256"
        }
      ],
      "name": "setMaxMintAmountForWhiteList",
      "outputs": [],
      "stateMutability": "nonpayable",
      "type": "function"
    },
    {
      "inputs": [
        {
          "internalType": "uint256",
          "name": "_value",
          "type": "uint256"
        }
      ],
      "name": "setMaxSupply",
      "outputs": [],
      "stateMutability": "nonpayable",
      "type": "function"
    },
    {
      "inputs": [
        {
          "internalType": "uint256",
          "name": "_newCost",
          "type": "uint256"
        }
      ],
      "name": "setMintCost",
      "outputs": [],
      "stateMutability": "nonpayable",
      "type": "function"
    },
    {
      "inputs": [
        {
          "internalType": "bool",
          "name": "_state",
          "type": "bool"
        }
      ],
      "name": "setOnlyWhitelisted",
      "outputs": [],
      "stateMutability": "nonpayable",
      "type": "function"
    },
    {
      "inputs": [
        {
          "internalType": "bytes4",
          "name": "interfaceId",
          "type": "bytes4"
        }
      ],
      "name": "supportsInterface",
      "outputs": [
        {
          "internalType": "bool",
          "name": "",
          "type": "bool"
        }
      ],
      "stateMutability": "view",
      "type": "function"
    },
    {
      "inputs": [],
      "name": "symbol",
      "outputs": [
        {
          "internalType": "string",
          "name": "",
          "type": "string"
        }
      ],
      "stateMutability": "view",
      "type": "function"
    },
    {
      "inputs": [
        {
          "internalType": "uint256",
          "name": "tokenId",
          "type": "uint256"
        }
      ],
      "name": "tokenURI",
      "outputs": [
        {
          "internalType": "string",
          "name": "",
          "type": "string"
        }
      ],
      "stateMutability": "view",
      "type": "function"
    },
    {
      "inputs": [],
      "name": "totalSupply",
      "outputs": [
        {
          "internalType": "uint256",
          "name": "",
          "type": "uint256"
        }
      ],
      "stateMutability": "view",
      "type": "function"
    },
    {
      "inputs": [
        {
          "internalType": "address",
          "name": "from",
          "type": "address"
        },
        {
          "internalType": "address",
          "name": "to",
          "type": "address"
        },
        {
          "internalType": "uint256",
          "name": "tokenId",
          "type": "uint256"
        }
      ],
      "name": "transferFrom",
      "outputs": [],
      "stateMutability": "nonpayable",
      "type": "function"
    },
    {
      "inputs": [
        {
          "internalType": "address",
          "name": "newOwner",
          "type": "address"
        }
      ],
      "name": "transferOwnership",
      "outputs": [],
      "stateMutability": "nonpayable",
      "type": "function"
    },
    {
      "inputs": [
        {
          "internalType": "address",
          "name": "",
          "type": "address"
        }
      ],
      "name": "whitelistCounts",
      "outputs": [
        {
          "internalType": "uint256",
          "name": "",
          "type": "uint256"
        }
      ],
      "stateMutability": "view",
      "type": "function"
    },
    {
      "inputs": [],
      "name": "withdraw",
      "outputs": [],
      "stateMutability": "payable",
      "type": "function"
    },
    {
      "inputs": [],
      "name": "withdrawAddress",
      "outputs": [
        {
          "internalType": "address",
          "name": "",
          "type": "address"
        }
      ],
      "stateMutability": "view",
      "type": "function"
    }
  ],
  "bytecode": "0x60806040526040518060400160405280600581526020017f2e6a736f6e000000000000000000000000000000000000000000000000000000815250600a90805190602001906200005192919062000880565b5066038d7ea4c68000600b5566038d7ea4c68000600c556064600d556014600e556005600f55600a6010556000601160006101000a81548160ff0219169083151502179055506001601160016101000a81548160ff0219169083151502179055506000601160026101000a81548160ff021916908315150217905550348015620000da57600080fd5b506040518060400160405280600681526020017f4d79204e465400000000000000000000000000000000000000000000000000008152506040518060400160405280600381526020017f4d4e54000000000000000000000000000000000000000000000000000000000081525081600290805190602001906200015f92919062000880565b5080600390805190602001906200017892919062000880565b50620001896200020860201b60201c565b6000819055505050620001b1620001a56200021160201b60201c565b6200021960201b60201c565b620001db60405180606001604052806036815260200162004bb160369139620002df60201b60201c565b62000202730195fcc920eee9a2726a5762b88720f6ac03a577600a6200030b60201b60201c565b62000c04565b60006001905090565b600033905090565b6000600860009054906101000a900473ffffffffffffffffffffffffffffffffffffffff16905081600860006101000a81548173ffffffffffffffffffffffffffffffffffffffff021916908373ffffffffffffffffffffffffffffffffffffffff1602179055508173ffffffffffffffffffffffffffffffffffffffff168173ffffffffffffffffffffffffffffffffffffffff167f8be0079c531659141344cd1fd0a4f28419497f9722a3daafe3b4186f6b6457e060405160405180910390a35050565b620002ef6200033160201b60201c565b80600990805190602001906200030792919062000880565b5050565b6200032d828260405180602001604052806000815250620003c260201b60201c565b5050565b620003416200021160201b60201c565b73ffffffffffffffffffffffffffffffffffffffff16620003676200047360201b60201c565b73ffffffffffffffffffffffffffffffffffffffff1614620003c0576040517f08c379a0000000000000000000000000000000000000000000000000000000008152600401620003b79062000991565b60405180910390fd5b565b620003d483836200049d60201b60201c565b60008373ffffffffffffffffffffffffffffffffffffffff163b146200046e57600080549050600083820390505b6200041d60008683806001019450866200068660201b60201c565b62000454576040517fd1a57ed600000000000000000000000000000000000000000000000000000000815260040160405180910390fd5b818110620004025781600054146200046b57600080fd5b50505b505050565b6000600860009054906101000a900473ffffffffffffffffffffffffffffffffffffffff16905090565b6000805490506000821415620004df576040517fb562e8dd00000000000000000000000000000000000000000000000000000000815260040160405180910390fd5b620004f46000848385620007f860201b60201c565b600160406001901b178202600560008573ffffffffffffffffffffffffffffffffffffffff1673ffffffffffffffffffffffffffffffffffffffff168152602001908152602001600020600082825401925050819055506200058383620005656000866000620007fe60201b60201c565b62000576856200082e60201b60201c565b176200083e60201b60201c565b6004600083815260200190815260200160002081905550600080838301905073ffffffffffffffffffffffffffffffffffffffff85169150828260007fddf252ad1be2c89b69c2b068fc378daa952ba7f163c4a11628f55a4df523b3ef600080a4600183015b8181146200062657808360007fddf252ad1be2c89b69c2b068fc378daa952ba7f163c4a11628f55a4df523b3ef600080a4600181019050620005e9565b50600082141562000663576040517f2e07630000000000000000000000000000000000000000000000000000000000815260040160405180910390fd5b8060008190555050506200068160008483856200086960201b60201c565b505050565b60008373ffffffffffffffffffffffffffffffffffffffff1663150b7a02620006b46200086f60201b60201c565b8786866040518563ffffffff1660e01b8152600401620006d8949392919062000ab7565b602060405180830381600087803b158015620006f357600080fd5b505af19250505080156200072757506040513d601f19601f8201168201806040525081019062000724919062000b6d565b60015b620007a5573d80600081146200075a576040519150601f19603f3d011682016040523d82523d6000602084013e6200075f565b606091505b506000815114156200079d576040517fd1a57ed600000000000000000000000000000000000000000000000000000000815260040160405180910390fd5b805181602001fd5b63150b7a0260e01b7bffffffffffffffffffffffffffffffffffffffffffffffffffffffff1916817bffffffffffffffffffffffffffffffffffffffffffffffffffffffff191614915050949350505050565b50505050565b60008060e883901c905060e86200081d8686846200087760201b60201c565b62ffffff16901b9150509392505050565b60006001821460e11b9050919050565b600073ffffffffffffffffffffffffffffffffffffffff83169250814260a01b178317905092915050565b50505050565b600033905090565b60009392505050565b8280546200088e9062000bce565b90600052602060002090601f016020900481019282620008b25760008555620008fe565b82601f10620008cd57805160ff1916838001178555620008fe565b82800160010185558215620008fe579182015b82811115620008fd578251825591602001919060010190620008e0565b5b5090506200090d919062000911565b5090565b5b808211156200092c57600081600090555060010162000912565b5090565b600082825260208201905092915050565b7f4f776e61626c653a2063616c6c6572206973206e6f7420746865206f776e6572600082015250565b60006200097960208362000930565b9150620009868262000941565b602082019050919050565b60006020820190508181036000830152620009ac816200096a565b9050919050565b600073ffffffffffffffffffffffffffffffffffffffff82169050919050565b6000620009e082620009b3565b9050919050565b620009f281620009d3565b82525050565b6000819050919050565b62000a0d81620009f8565b82525050565b600081519050919050565b600082825260208201905092915050565b60005b8381101562000a4f57808201518184015260208101905062000a32565b8381111562000a5f576000848401525b50505050565b6000601f19601f8301169050919050565b600062000a838262000a13565b62000a8f818562000a1e565b935062000aa181856020860162000a2f565b62000aac8162000a65565b840191505092915050565b600060808201905062000ace6000830187620009e7565b62000add6020830186620009e7565b62000aec604083018562000a02565b818103606083015262000b00818462000a76565b905095945050505050565b600080fd5b60007fffffffff0000000000000000000000000000000000000000000000000000000082169050919050565b62000b478162000b10565b811462000b5357600080fd5b50565b60008151905062000b678162000b3c565b92915050565b60006020828403121562000b865762000b8562000b0b565b5b600062000b968482850162000b56565b91505092915050565b7f4e487b7100000000000000000000000000000000000000000000000000000000600052602260045260246000fd5b6000600282049050600182168062000be757607f821691505b6020821081141562000bfe5762000bfd62000b9f565b5b50919050565b613f9d8062000c146000396000f3fe6080604052600436106102c85760003560e01c80637e04096911610175578063bdb4b848116100dc578063d5abeb0111610095578063e985e9c51161006f578063e985e9c514610aa4578063f2fde38b14610ae1578063f4fce61c14610b0a578063fa85c6cb14610b33576102c8565b8063d5abeb0114610a25578063d6e7b8e414610a50578063da3ef23f14610a7b576102c8565b8063bdb4b84814610901578063c1b19de61461092c578063c668286214610957578063c87b56dd14610982578063d2c777e6146109bf578063d4b0a23b146109fc576102c8565b80639c70b5121161012e5780639c70b51214610814578063a0712d681461083f578063a210c8041461085b578063a22cb46514610884578063b55cd04b146108ad578063b88d4fde146108d8576102c8565b80637e04096914610725578063800deb7e146107415780638545f4ea1461076a5780638da5cb5b1461079357806395d89b41146107be5780639c02757a146107e9576102c8565b80633ccfd60b116102345780636352211e116101ed5780636e3bd6b1116101c75780636e3bd6b11461067f5780636f8b44b0146106a857806370a08231146106d1578063715018a61461070e576102c8565b80636352211e146105ec578063682a3ad6146106295780636c0360eb14610654576102c8565b80633ccfd60b146104eb57806342842e0e146104f5578063490645df1461051e5780634f558e791461055b57806355f804b3146105985780635c975abb146105c1576102c8565b8063095ea7b311610286578063095ea7b3146103ef5780631581b6001461041857806318160ddd14610443578063239c70ae1461046e57806323b872dd146104995780633c952764146104c2576102c8565b8062bad77a146102cd57806301ffc9a7146102f857806302329a291461033557806306fdde031461035e578063081812fc14610389578063088a4ed0146103c6575b600080fd5b3480156102d957600080fd5b506102e2610b70565b6040516102ef9190612dab565b60405180910390f35b34801561030457600080fd5b5061031f600480360381019061031a9190612e32565b610b83565b60405161032c9190612dab565b60405180910390f35b34801561034157600080fd5b5061035c60048036038101906103579190612e8b565b610c15565b005b34801561036a57600080fd5b50610373610c3a565b6040516103809190612f51565b60405180910390f35b34801561039557600080fd5b506103b060048036038101906103ab9190612fa9565b610ccc565b6040516103bd9190613017565b60405180910390f35b3480156103d257600080fd5b506103ed60048036038101906103e89190612fa9565b610d4b565b005b3480156103fb57600080fd5b506104166004803603810190610411919061305e565b610d5d565b005b34801561042457600080fd5b5061042d610ea1565b60405161043a9190613017565b60405180910390f35b34801561044f57600080fd5b50610458610eb9565b60405161046591906130ad565b60405180910390f35b34801561047a57600080fd5b50610483610ed0565b60405161049091906130ad565b60405180910390f35b3480156104a557600080fd5b506104c060048036038101906104bb91906130c8565b610ed6565b005b3480156104ce57600080fd5b506104e960048036038101906104e49190612e8b565b6111fb565b005b6104f3611220565b005b34801561050157600080fd5b5061051c600480360381019061051791906130c8565b6112b5565b005b34801561052a57600080fd5b506105456004803603810190610540919061311b565b6112d5565b60405161055291906130ad565b60405180910390f35b34801561056757600080fd5b50610582600480360381019061057d9190612fa9565b611329565b60405161058f9190612dab565b60405180910390f35b3480156105a457600080fd5b506105bf60048036038101906105ba919061327d565b61133b565b005b3480156105cd57600080fd5b506105d661135d565b6040516105e39190612dab565b60405180910390f35b3480156105f857600080fd5b50610613600480360381019061060e9190612fa9565b611370565b6040516106209190613017565b60405180910390f35b34801561063557600080fd5b5061063e611382565b60405161064b91906130ad565b60405180910390f35b34801561066057600080fd5b50610669611388565b6040516106769190612f51565b60405180910390f35b34801561068b57600080fd5b506106a660048036038101906106a19190612fa9565b611416565b005b3480156106b457600080fd5b506106cf60048036038101906106ca9190612fa9565b611428565b005b3480156106dd57600080fd5b506106f860048036038101906106f3919061311b565b61143a565b60405161070591906130ad565b60405180910390f35b34801561071a57600080fd5b506107236114f3565b005b61073f600480360381019061073a919061338e565b611507565b005b34801561074d57600080fd5b5061076860048036038101906107639190612e8b565b61181e565b005b34801561077657600080fd5b50610791600480360381019061078c9190612fa9565b611843565b005b34801561079f57600080fd5b506107a8611855565b6040516107b59190613017565b60405180910390f35b3480156107ca57600080fd5b506107d361187f565b6040516107e09190612f51565b60405180910390f35b3480156107f557600080fd5b506107fe611911565b60405161080b91906130ad565b60405180910390f35b34801561082057600080fd5b50610829611917565b6040516108369190612dab565b60405180910390f35b61085960048036038101906108549190612fa9565b61192a565b005b34801561086757600080fd5b50610882600480360381019061087d9190612fa9565b611ba4565b005b34801561089057600080fd5b506108ab60048036038101906108a691906133d7565b611bb6565b005b3480156108b957600080fd5b506108c2611d2e565b6040516108cf91906130ad565b60405180910390f35b3480156108e457600080fd5b506108ff60048036038101906108fa91906134b8565b611d3d565b005b34801561090d57600080fd5b50610916611db0565b60405161092391906130ad565b60405180910390f35b34801561093857600080fd5b50610941611db6565b60405161094e91906130ad565b60405180910390f35b34801561096357600080fd5b5061096c611dbc565b6040516109799190612f51565b60405180910390f35b34801561098e57600080fd5b506109a960048036038101906109a49190612fa9565b611e4a565b6040516109b69190612f51565b60405180910390f35b3480156109cb57600080fd5b506109e660048036038101906109e1919061311b565b611e7e565b6040516109f391906130ad565b60405180910390f35b348015610a0857600080fd5b50610a236004803603810190610a1e91906135fe565b611e96565b005b348015610a3157600080fd5b50610a3a611f48565b604051610a4791906130ad565b60405180910390f35b348015610a5c57600080fd5b50610a65611f4e565b604051610a7291906130ad565b60405180910390f35b348015610a8757600080fd5b50610aa26004803603810190610a9d919061327d565b611f7f565b005b348015610ab057600080fd5b50610acb6004803603810190610ac69190613676565b611fa1565b604051610ad89190612dab565b60405180910390f35b348015610aed57600080fd5b50610b086004803603810190610b03919061311b565b612035565b005b348015610b1657600080fd5b50610b316004803603810190610b2c9190612fa9565b6120b9565b005b348015610b3f57600080fd5b50610b5a6004803603810190610b55919061311b565b6120cb565b604051610b6791906130ad565b60405180910390f35b601160019054906101000a900460ff1681565b60006301ffc9a760e01b827bffffffffffffffffffffffffffffffffffffffffffffffffffffffff19161480610bde57506380ac58cd60e01b827bffffffffffffffffffffffffffffffffffffffffffffffffffffffff1916145b80610c0e5750635b5e139f60e01b827bffffffffffffffffffffffffffffffffffffffffffffffffffffffff1916145b9050919050565b610c1d612114565b80601160006101000a81548160ff02191690831515021790555050565b606060028054610c49906136e5565b80601f0160208091040260200160405190810160405280929190818152602001828054610c75906136e5565b8015610cc25780601f10610c9757610100808354040283529160200191610cc2565b820191906000526020600020905b815481529060010190602001808311610ca557829003601f168201915b5050505050905090565b6000610cd782612192565b610d0d576040517fcf4700e400000000000000000000000000000000000000000000000000000000815260040160405180910390fd5b6006600083815260200190815260200160002060000160009054906101000a900473ffffffffffffffffffffffffffffffffffffffff169050919050565b610d53612114565b80600f8190555050565b6000610d6882611370565b90508073ffffffffffffffffffffffffffffffffffffffff16610d896121f1565b73ffffffffffffffffffffffffffffffffffffffff1614610dec57610db581610db06121f1565b611fa1565b610deb576040517fcfb3b94200000000000000000000000000000000000000000000000000000000815260040160405180910390fd5b5b826006600084815260200190815260200160002060000160006101000a81548173ffffffffffffffffffffffffffffffffffffffff021916908373ffffffffffffffffffffffffffffffffffffffff160217905550818373ffffffffffffffffffffffffffffffffffffffff168273ffffffffffffffffffffffffffffffffffffffff167f8c5be1e5ebec7d5bd14f71427d1e84f3dd0314c0f7b2291e5b200ac8c7c3b92560405160405180910390a4505050565b730195fcc920eee9a2726a5762b88720f6ac03a57781565b6000610ec36121f9565b6001546000540303905090565b600f5481565b6000610ee182612202565b90508373ffffffffffffffffffffffffffffffffffffffff168173ffffffffffffffffffffffffffffffffffffffff1614610f48576040517fa114810000000000000000000000000000000000000000000000000000000000815260040160405180910390fd5b600080610f54846122d0565b91509150610f6a8187610f656121f1565b6122f7565b610fb657610f7f86610f7a6121f1565b611fa1565b610fb5576040517f59c896be00000000000000000000000000000000000000000000000000000000815260040160405180910390fd5b5b600073ffffffffffffffffffffffffffffffffffffffff168573ffffffffffffffffffffffffffffffffffffffff16141561101d576040517fea553b3400000000000000000000000000000000000000000000000000000000815260040160405180910390fd5b61102a868686600161233b565b801561103557600082555b600560008773ffffffffffffffffffffffffffffffffffffffff1673ffffffffffffffffffffffffffffffffffffffff168152602001908152602001600020600081546001900391905081905550600560008673ffffffffffffffffffffffffffffffffffffffff1673ffffffffffffffffffffffffffffffffffffffff1681526020019081526020016000206000815460010191905081905550611103856110df888887612341565b7c020000000000000000000000000000000000000000000000000000000017612369565b600460008681526020019081526020016000208190555060007c02000000000000000000000000000000000000000000000000000000008416141561118b576000600185019050600060046000838152602001908152602001600020541415611189576000548114611188578360046000838152602001908152602001600020819055505b5b505b838573ffffffffffffffffffffffffffffffffffffffff168773ffffffffffffffffffffffffffffffffffffffff167fddf252ad1be2c89b69c2b068fc378daa952ba7f163c4a11628f55a4df523b3ef60405160405180910390a46111f38686866001612394565b505050505050565b611203612114565b80601160026101000a81548160ff02191690831515021790555050565b611228612114565b6000730195fcc920eee9a2726a5762b88720f6ac03a57773ffffffffffffffffffffffffffffffffffffffff164760405161126290613748565b60006040518083038185875af1925050503d806000811461129f576040519150601f19603f3d011682016040523d82523d6000602084013e6112a4565b606091505b50509050806112b257600080fd5b50565b6112d083838360405180602001604052806000815250611d3d565b505050565b600060011515601160029054906101000a900460ff161515141561131e5760006112fe836120cb565b905060105481111561131557601054915050611324565b80915050611324565b600f5490505b919050565b600061133482612192565b9050919050565b611343612114565b8060099080519060200190611359929190612ced565b5050565b601160009054906101000a900460ff1681565b600061137b82612202565b9050919050565b600e5481565b60098054611395906136e5565b80601f01602080910402602001604051908101604052809291908181526020018280546113c1906136e5565b801561140e5780601f106113e35761010080835404028352916020019161140e565b820191906000526020600020905b8154815290600101906020018083116113f157829003601f168201915b505050505081565b61141e612114565b80600c8190555050565b611430612114565b80600d8190555050565b60008073ffffffffffffffffffffffffffffffffffffffff168273ffffffffffffffffffffffffffffffffffffffff1614156114a2576040517f8f4eb60400000000000000000000000000000000000000000000000000000000815260040160405180910390fd5b67ffffffffffffffff600560008473ffffffffffffffffffffffffffffffffffffffff1673ffffffffffffffffffffffffffffffffffffffff16815260200190815260200160002054169050919050565b6114fb612114565b611505600061239a565b565b601160019054906101000a900460ff1615611557576040517f08c379a000000000000000000000000000000000000000000000000000000000815260040161154e906137a9565b60405180910390fd5b8051611561611f4e565b8111156115a3576040517f08c379a000000000000000000000000000000000000000000000000000000000815260040161159a9061383b565b60405180910390fd5b815180600b546115b3919061388a565b3410156115f5576040517f08c379a00000000000000000000000000000000000000000000000000000000081526004016115ec90613930565b60405180910390fd5b8251600e54611602612460565b8261160d9190613950565b111561164e576040517f08c379a0000000000000000000000000000000000000000000000000000000008152600401611645906139f2565b60405180910390fd5b8351601160029054906101000a900460ff161561176b576000601260003373ffffffffffffffffffffffffffffffffffffffff1673ffffffffffffffffffffffffffffffffffffffff1681526020019081526020016000205414156116e8576040517f08c379a00000000000000000000000000000000000000000000000000000000081526004016116df90613a5e565b60405180910390fd5b80601260003373ffffffffffffffffffffffffffffffffffffffff1673ffffffffffffffffffffffffffffffffffffffff16815260200190815260200160002054101561176a576040517f08c379a000000000000000000000000000000000000000000000000000000000815260040161176190613aca565b60405180910390fd5b5b611775855161246a565b60005b855181101561180457600086828151811061179657611795613aea565b5b602002602001015190506117a981611370565b73ffffffffffffffffffffffffffffffffffffffff166117c7612511565b73ffffffffffffffffffffffffffffffffffffffff16146117e757600080fd5b6117f081612519565b5080806117fc90613b19565b915050611778565b50611817611810612511565b8651612527565b5050505050565b611826612114565b80601160016101000a81548160ff02191690831515021790555050565b61184b612114565b80600b8190555050565b6000600860009054906101000a900473ffffffffffffffffffffffffffffffffffffffff16905090565b60606003805461188e906136e5565b80601f01602080910402602001604051908101604052809291908181526020018280546118ba906136e5565b80156119075780601f106118dc57610100808354040283529160200191611907565b820191906000526020600020905b8154815290600101906020018083116118ea57829003601f168201915b5050505050905090565b600c5481565b601160029054906101000a900460ff1681565b601160009054906101000a900460ff161561197a576040517f08c379a000000000000000000000000000000000000000000000000000000000815260040161197190613bae565b60405180910390fd5b80600d54611986610eb9565b826119919190613950565b11156119d2576040517f08c379a00000000000000000000000000000000000000000000000000000000081526004016119c990613c1a565b60405180910390fd5b816119db611f4e565b811115611a1d576040517f08c379a0000000000000000000000000000000000000000000000000000000008152600401611a149061383b565b60405180910390fd5b8280600b54611a2c919061388a565b341015611a6e576040517f08c379a0000000000000000000000000000000000000000000000000000000008152600401611a6590613930565b60405180910390fd5b83601160029054906101000a900460ff1615611b8a576000601260003373ffffffffffffffffffffffffffffffffffffffff1673ffffffffffffffffffffffffffffffffffffffff168152602001908152602001600020541415611b07576040517f08c379a0000000000000000000000000000000000000000000000000000000008152600401611afe90613a5e565b60405180910390fd5b80601260003373ffffffffffffffffffffffffffffffffffffffff1673ffffffffffffffffffffffffffffffffffffffff168152602001908152602001600020541015611b89576040517f08c379a0000000000000000000000000000000000000000000000000000000008152600401611b8090613aca565b60405180910390fd5b5b611b938561246a565b611b9d3386612527565b5050505050565b611bac612114565b80600e8190555050565b611bbe6121f1565b73ffffffffffffffffffffffffffffffffffffffff168273ffffffffffffffffffffffffffffffffffffffff161415611c23576040517fb06307db00000000000000000000000000000000000000000000000000000000815260040160405180910390fd5b8060076000611c306121f1565b73ffffffffffffffffffffffffffffffffffffffff1673ffffffffffffffffffffffffffffffffffffffff16815260200190815260200160002060008473ffffffffffffffffffffffffffffffffffffffff1673ffffffffffffffffffffffffffffffffffffffff16815260200190815260200160002060006101000a81548160ff0219169083151502179055508173ffffffffffffffffffffffffffffffffffffffff16611cdd6121f1565b73ffffffffffffffffffffffffffffffffffffffff167f17307eab39ab6107e8899845ad3d59bd9653f200f220920489ca2b5937696c3183604051611d229190612dab565b60405180910390a35050565b6000611d38612460565b905090565b611d48848484610ed6565b60008373ffffffffffffffffffffffffffffffffffffffff163b14611daa57611d7384848484612545565b611da9576040517fd1a57ed600000000000000000000000000000000000000000000000000000000815260040160405180910390fd5b5b50505050565b600b5481565b60105481565b600a8054611dc9906136e5565b80601f0160208091040260200160405190810160405280929190818152602001828054611df5906136e5565b8015611e425780601f10611e1757610100808354040283529160200191611e42565b820191906000526020600020905b815481529060010190602001808311611e2557829003601f168201915b505050505081565b6060611e55826126a5565b600a604051602001611e68929190613d0a565b6040516020818303038152906040529050919050565b60126020528060005260406000206000915090505481565b611e9e612114565b8051825114611eac57600080fd5b60005b8251811015611f4357818181518110611ecb57611eca613aea565b5b602002602001015160126000858481518110611eea57611ee9613aea565b5b602002602001015173ffffffffffffffffffffffffffffffffffffffff1673ffffffffffffffffffffffffffffffffffffffff168152602001908152602001600020819055508080611f3b90613b19565b915050611eaf565b505050565b600d5481565b600060011515601160029054906101000a900460ff1615151415611f76576010549050611f7c565b600f5490505b90565b611f87612114565b80600a9080519060200190611f9d929190612ced565b5050565b6000600760008473ffffffffffffffffffffffffffffffffffffffff1673ffffffffffffffffffffffffffffffffffffffff16815260200190815260200160002060008373ffffffffffffffffffffffffffffffffffffffff1673ffffffffffffffffffffffffffffffffffffffff16815260200190815260200160002060009054906101000a900460ff16905092915050565b61203d612114565b600073ffffffffffffffffffffffffffffffffffffffff168173ffffffffffffffffffffffffffffffffffffffff1614156120ad576040517f08c379a00000000000000000000000000000000000000000000000000000000081526004016120a490613da0565b60405180910390fd5b6120b68161239a565b50565b6120c1612114565b8060108190555050565b6000601260008373ffffffffffffffffffffffffffffffffffffffff1673ffffffffffffffffffffffffffffffffffffffff168152602001908152602001600020549050919050565b61211c612511565b73ffffffffffffffffffffffffffffffffffffffff1661213a611855565b73ffffffffffffffffffffffffffffffffffffffff1614612190576040517f08c379a000000000000000000000000000000000000000000000000000000000815260040161218790613e0c565b60405180910390fd5b565b60008161219d6121f9565b111580156121ac575060005482105b80156121ea575060007c0100000000000000000000000000000000000000000000000000000000600460008581526020019081526020016000205416145b9050919050565b600033905090565b60006001905090565b600080829050806122116121f9565b11612299576000548110156122985760006004600083815260200190815260200160002054905060007c010000000000000000000000000000000000000000000000000000000082161415612296575b600081141561228c576004600083600190039350838152602001908152602001600020549050612261565b80925050506122cb565b505b5b6040517fdf2d9b4200000000000000000000000000000000000000000000000000000000815260040160405180910390fd5b919050565b60008060006006600085815260200190815260200160002090508092508254915050915091565b600073ffffffffffffffffffffffffffffffffffffffff8316925073ffffffffffffffffffffffffffffffffffffffff821691508382148383141790509392505050565b50505050565b60008060e883901c905060e8612358868684612744565b62ffffff16901b9150509392505050565b600073ffffffffffffffffffffffffffffffffffffffff83169250814260a01b178317905092915050565b50505050565b6000600860009054906101000a900473ffffffffffffffffffffffffffffffffffffffff16905081600860006101000a81548173ffffffffffffffffffffffffffffffffffffffff021916908373ffffffffffffffffffffffffffffffffffffffff1602179055508173ffffffffffffffffffffffffffffffffffffffff168173ffffffffffffffffffffffffffffffffffffffff167f8be0079c531659141344cd1fd0a4f28419497f9722a3daafe3b4186f6b6457e060405160405180910390a35050565b6000600154905090565b601160029054906101000a900460ff161561250e5780601260003373ffffffffffffffffffffffffffffffffffffffff1673ffffffffffffffffffffffffffffffffffffffff168152602001908152602001600020546124ca9190613e2c565b601260003373ffffffffffffffffffffffffffffffffffffffff1673ffffffffffffffffffffffffffffffffffffffff168152602001908152602001600020819055505b50565b600033905090565b61252481600061274d565b50565b6125418282604051806020016040528060008152506129a1565b5050565b60008373ffffffffffffffffffffffffffffffffffffffff1663150b7a0261256b6121f1565b8786866040518563ffffffff1660e01b815260040161258d9493929190613eb5565b602060405180830381600087803b1580156125a757600080fd5b505af19250505080156125d857506040513d601f19601f820116820180604052508101906125d59190613f16565b60015b612652573d8060008114612608576040519150601f19603f3d011682016040523d82523d6000602084013e61260d565b606091505b5060008151141561264a576040517fd1a57ed600000000000000000000000000000000000000000000000000000000815260040160405180910390fd5b805181602001fd5b63150b7a0260e01b7bffffffffffffffffffffffffffffffffffffffffffffffffffffffff1916817bffffffffffffffffffffffffffffffffffffffffffffffffffffffff191614915050949350505050565b60606126b082612192565b6126e6576040517fa14c4b5000000000000000000000000000000000000000000000000000000000815260040160405180910390fd5b60006126f0612a3e565b9050600081511415612711576040518060200160405280600081525061273c565b8061271b84612ad0565b60405160200161272c929190613f43565b6040516020818303038152906040525b915050919050565b60009392505050565b600061275883612202565b9050600081905060008061276b866122d0565b9150915084156127d45761278781846127826121f1565b6122f7565b6127d35761279c836127976121f1565b611fa1565b6127d2576040517f59c896be00000000000000000000000000000000000000000000000000000000815260040160405180910390fd5b5b5b6127e283600088600161233b565b80156127ed57600082555b600160806001901b03600560008573ffffffffffffffffffffffffffffffffffffffff1673ffffffffffffffffffffffffffffffffffffffff168152602001908152602001600020600082825401925050819055506128958361285285600088612341565b7c02000000000000000000000000000000000000000000000000000000007c01000000000000000000000000000000000000000000000000000000001717612369565b600460008881526020019081526020016000208190555060007c02000000000000000000000000000000000000000000000000000000008516141561291d57600060018701905060006004600083815260200190815260200160002054141561291b57600054811461291a578460046000838152602001908152602001600020819055505b5b505b85600073ffffffffffffffffffffffffffffffffffffffff168473ffffffffffffffffffffffffffffffffffffffff167fddf252ad1be2c89b69c2b068fc378daa952ba7f163c4a11628f55a4df523b3ef60405160405180910390a4612987836000886001612394565b600160008154809291906001019190505550505050505050565b6129ab8383612b20565b60008373ffffffffffffffffffffffffffffffffffffffff163b14612a3957600080549050600083820390505b6129eb6000868380600101945086612545565b612a21576040517fd1a57ed600000000000000000000000000000000000000000000000000000000815260040160405180910390fd5b8181106129d8578160005414612a3657600080fd5b50505b505050565b606060098054612a4d906136e5565b80601f0160208091040260200160405190810160405280929190818152602001828054612a79906136e5565b8015612ac65780601f10612a9b57610100808354040283529160200191612ac6565b820191906000526020600020905b815481529060010190602001808311612aa957829003601f168201915b5050505050905090565b606060806040510190508060405280825b600115612b0c57600183039250600a81066030018353600a8104905080612b0757612b0c565b612ae1565b508181036020830392508083525050919050565b6000805490506000821415612b61576040517fb562e8dd00000000000000000000000000000000000000000000000000000000815260040160405180910390fd5b612b6e600084838561233b565b600160406001901b178202600560008573ffffffffffffffffffffffffffffffffffffffff1673ffffffffffffffffffffffffffffffffffffffff16815260200190815260200160002060008282540192505081905550612be583612bd66000866000612341565b612bdf85612cdd565b17612369565b6004600083815260200190815260200160002081905550600080838301905073ffffffffffffffffffffffffffffffffffffffff85169150828260007fddf252ad1be2c89b69c2b068fc378daa952ba7f163c4a11628f55a4df523b3ef600080a4600183015b818114612c8657808360007fddf252ad1be2c89b69c2b068fc378daa952ba7f163c4a11628f55a4df523b3ef600080a4600181019050612c4b565b506000821415612cc2576040517f2e07630000000000000000000000000000000000000000000000000000000000815260040160405180910390fd5b806000819055505050612cd86000848385612394565b505050565b60006001821460e11b9050919050565b828054612cf9906136e5565b90600052602060002090601f016020900481019282612d1b5760008555612d62565b82601f10612d3457805160ff1916838001178555612d62565b82800160010185558215612d62579182015b82811115612d61578251825591602001919060010190612d46565b5b509050612d6f9190612d73565b5090565b5b80821115612d8c576000816000905550600101612d74565b5090565b60008115159050919050565b612da581612d90565b82525050565b6000602082019050612dc06000830184612d9c565b92915050565b6000604051905090565b600080fd5b600080fd5b60007fffffffff0000000000000000000000000000000000000000000000000000000082169050919050565b612e0f81612dda565b8114612e1a57600080fd5b50565b600081359050612e2c81612e06565b92915050565b600060208284031215612e4857612e47612dd0565b5b6000612e5684828501612e1d565b91505092915050565b612e6881612d90565b8114612e7357600080fd5b50565b600081359050612e8581612e5f565b92915050565b600060208284031215612ea157612ea0612dd0565b5b6000612eaf84828501612e76565b91505092915050565b600081519050919050565b600082825260208201905092915050565b60005b83811015612ef2578082015181840152602081019050612ed7565b83811115612f01576000848401525b50505050565b6000601f19601f8301169050919050565b6000612f2382612eb8565b612f2d8185612ec3565b9350612f3d818560208601612ed4565b612f4681612f07565b840191505092915050565b60006020820190508181036000830152612f6b8184612f18565b905092915050565b6000819050919050565b612f8681612f73565b8114612f9157600080fd5b50565b600081359050612fa381612f7d565b92915050565b600060208284031215612fbf57612fbe612dd0565b5b6000612fcd84828501612f94565b91505092915050565b600073ffffffffffffffffffffffffffffffffffffffff82169050919050565b600061300182612fd6565b9050919050565b61301181612ff6565b82525050565b600060208201905061302c6000830184613008565b92915050565b61303b81612ff6565b811461304657600080fd5b50565b60008135905061305881613032565b92915050565b6000806040838503121561307557613074612dd0565b5b600061308385828601613049565b925050602061309485828601612f94565b9150509250929050565b6130a781612f73565b82525050565b60006020820190506130c2600083018461309e565b92915050565b6000806000606084860312156130e1576130e0612dd0565b5b60006130ef86828701613049565b935050602061310086828701613049565b925050604061311186828701612f94565b9150509250925092565b60006020828403121561313157613130612dd0565b5b600061313f84828501613049565b91505092915050565b600080fd5b600080fd5b7f4e487b7100000000000000000000000000000000000000000000000000000000600052604160045260246000fd5b61318a82612f07565b810181811067ffffffffffffffff821117156131a9576131a8613152565b5b80604052505050565b60006131bc612dc6565b90506131c88282613181565b919050565b600067ffffffffffffffff8211156131e8576131e7613152565b5b6131f182612f07565b9050602081019050919050565b82818337600083830152505050565b600061322061321b846131cd565b6131b2565b90508281526020810184848401111561323c5761323b61314d565b5b6132478482856131fe565b509392505050565b600082601f83011261326457613263613148565b5b813561327484826020860161320d565b91505092915050565b60006020828403121561329357613292612dd0565b5b600082013567ffffffffffffffff8111156132b1576132b0612dd5565b5b6132bd8482850161324f565b91505092915050565b600067ffffffffffffffff8211156132e1576132e0613152565b5b602082029050602081019050919050565b600080fd5b600061330a613305846132c6565b6131b2565b9050808382526020820190506020840283018581111561332d5761332c6132f2565b5b835b8181101561335657806133428882612f94565b84526020840193505060208101905061332f565b5050509392505050565b600082601f83011261337557613374613148565b5b81356133858482602086016132f7565b91505092915050565b6000602082840312156133a4576133a3612dd0565b5b600082013567ffffffffffffffff8111156133c2576133c1612dd5565b5b6133ce84828501613360565b91505092915050565b600080604083850312156133ee576133ed612dd0565b5b60006133fc85828601613049565b925050602061340d85828601612e76565b9150509250929050565b600067ffffffffffffffff82111561343257613431613152565b5b61343b82612f07565b9050602081019050919050565b600061345b61345684613417565b6131b2565b9050828152602081018484840111156134775761347661314d565b5b6134828482856131fe565b509392505050565b600082601f83011261349f5761349e613148565b5b81356134af848260208601613448565b91505092915050565b600080600080608085870312156134d2576134d1612dd0565b5b60006134e087828801613049565b94505060206134f187828801613049565b935050604061350287828801612f94565b925050606085013567ffffffffffffffff81111561352357613522612dd5565b5b61352f8782880161348a565b91505092959194509250565b600067ffffffffffffffff82111561355657613555613152565b5b602082029050602081019050919050565b600061357a6135758461353b565b6131b2565b9050808382526020820190506020840283018581111561359d5761359c6132f2565b5b835b818110156135c657806135b28882613049565b84526020840193505060208101905061359f565b5050509392505050565b600082601f8301126135e5576135e4613148565b5b81356135f5848260208601613567565b91505092915050565b6000806040838503121561361557613614612dd0565b5b600083013567ffffffffffffffff81111561363357613632612dd5565b5b61363f858286016135d0565b925050602083013567ffffffffffffffff8111156136605761365f612dd5565b5b61366c85828601613360565b9150509250929050565b6000806040838503121561368d5761368c612dd0565b5b600061369b85828601613049565b92505060206136ac85828601613049565b9150509250929050565b7f4e487b7100000000000000000000000000000000000000000000000000000000600052602260045260246000fd5b600060028204905060018216806136fd57607f821691505b60208210811415613711576137106136b6565b5b50919050565b600081905092915050565b50565b6000613732600083613717565b915061373d82613722565b600082019050919050565b600061375382613725565b9150819050919050565b7f6275726e206d696e742069732070617573656400000000000000000000000000600082015250565b6000613793601383612ec3565b915061379e8261375d565b602082019050919050565b600060208201905081810360008301526137c281613786565b9050919050565b7f636c61696d206973206f766572206d6178207175616e74697479206174206f6e60008201527f6365000000000000000000000000000000000000000000000000000000000000602082015250565b6000613825602283612ec3565b9150613830826137c9565b604082019050919050565b6000602082019050818103600083015261385481613818565b9050919050565b7f4e487b7100000000000000000000000000000000000000000000000000000000600052601160045260246000fd5b600061389582612f73565b91506138a083612f73565b9250817fffffffffffffffffffffffffffffffffffffffffffffffffffffffffffffffff04831182151516156138d9576138d861385b565b5b828202905092915050565b7f6e6f7420656e6f75676820657468000000000000000000000000000000000000600082015250565b600061391a600e83612ec3565b9150613925826138e4565b602082019050919050565b600060208201905081810360008301526139498161390d565b9050919050565b600061395b82612f73565b915061396683612f73565b9250827fffffffffffffffffffffffffffffffffffffffffffffffffffffffffffffffff0382111561399b5761399a61385b565b5b828201905092915050565b7f6f76657220746f74616c206275726e206d696e7420636f756e74000000000000600082015250565b60006139dc601a83612ec3565b91506139e7826139a6565b602082019050919050565b60006020820190508181036000830152613a0b816139cf565b9050919050565b7f73656e646572206973206e6f742077686974656c697374656400000000000000600082015250565b6000613a48601983612ec3565b9150613a5382613a12565b602082019050919050565b60006020820190508181036000830152613a7781613a3b565b9050919050565b7f6f7665722077686974656c697374656420636f756e7400000000000000000000600082015250565b6000613ab4601683612ec3565b9150613abf82613a7e565b602082019050919050565b60006020820190508181036000830152613ae381613aa7565b9050919050565b7f4e487b7100000000000000000000000000000000000000000000000000000000600052603260045260246000fd5b6000613b2482612f73565b91507fffffffffffffffffffffffffffffffffffffffffffffffffffffffffffffffff821415613b5757613b5661385b565b5b600182019050919050565b7f6d696e7420697320706175736564000000000000000000000000000000000000600082015250565b6000613b98600e83612ec3565b9150613ba382613b62565b602082019050919050565b60006020820190508181036000830152613bc781613b8b565b9050919050565b7f657863656564206d617820737570706c79000000000000000000000000000000600082015250565b6000613c04601183612ec3565b9150613c0f82613bce565b602082019050919050565b60006020820190508181036000830152613c3381613bf7565b9050919050565b600081905092915050565b6000613c5082612eb8565b613c5a8185613c3a565b9350613c6a818560208601612ed4565b80840191505092915050565b60008190508160005260206000209050919050565b60008154613c98816136e5565b613ca28186613c3a565b94506001821660008114613cbd5760018114613cce57613d01565b60ff19831686528186019350613d01565b613cd785613c76565b60005b83811015613cf957815481890152600182019150602081019050613cda565b838801955050505b50505092915050565b6000613d168285613c45565b9150613d228284613c8b565b91508190509392505050565b7f4f776e61626c653a206e6577206f776e657220697320746865207a65726f206160008201527f6464726573730000000000000000000000000000000000000000000000000000602082015250565b6000613d8a602683612ec3565b9150613d9582613d2e565b604082019050919050565b60006020820190508181036000830152613db981613d7d565b9050919050565b7f4f776e61626c653a2063616c6c6572206973206e6f7420746865206f776e6572600082015250565b6000613df6602083612ec3565b9150613e0182613dc0565b602082019050919050565b60006020820190508181036000830152613e2581613de9565b9050919050565b6000613e3782612f73565b9150613e4283612f73565b925082821015613e5557613e5461385b565b5b828203905092915050565b600081519050919050565b600082825260208201905092915050565b6000613e8782613e60565b613e918185613e6b565b9350613ea1818560208601612ed4565b613eaa81612f07565b840191505092915050565b6000608082019050613eca6000830187613008565b613ed76020830186613008565b613ee4604083018561309e565b8181036060830152613ef68184613e7c565b905095945050505050565b600081519050613f1081612e06565b92915050565b600060208284031215613f2c57613f2b612dd0565b5b6000613f3a84828501613f01565b91505092915050565b6000613f4f8285613c45565b9150613f5b8284613c45565b9150819050939250505056fea26469706673582212201c88045bbc4cedb8df8f67fefc2b138fb2fe2d2fe8a968b1483a1b63e5a87ac764736f6c63430008090033697066733a2f2f516d5a5a6f593634384d626e3555367a4d706f5568725a59777a686f4b774a4570556f6b4367566d4c714c556a382f",
  "linkReferences": {},
  "deployedLinkReferences": {}
}