{
  "_format": "hh-sol-artifact-1",
  "contractName": "MyNFT",
  "sourceName": "contracts/myContract.sol",
  "abi": [
    {
      "inputs": [],
      "stateMutability": "nonpayable",
      "type": "constructor"
    },
    {
      "inputs": [],
      "name": "ApprovalCallerNotOwnerNorApproved",
      "type": "error"
    },
    {
      "inputs": [],
      "name": "ApprovalQueryForNonexistentToken",
      "type": "error"
    },
    {
      "inputs": [],
      "name": "ApproveToCaller",
      "type": "error"
    },
    {
      "inputs": [],
      "name": "BalanceQueryForZeroAddress",
      "type": "error"
    },
    {
      "inputs": [],
      "name": "MintERC2309QuantityExceedsLimit",
      "type": "error"
    },
    {
      "inputs": [],
      "name": "MintToZeroAddress",
      "type": "error"
    },
    {
      "inputs": [],
      "name": "MintZeroQuantity",
      "type": "error"
    },
    {
      "inputs": [],
      "name": "OwnerQueryForNonexistentToken",
      "type": "error"
    },
    {
      "inputs": [],
      "name": "OwnershipNotInitializedForExtraData",
      "type": "error"
    },
    {
      "inputs": [],
      "name": "TransferCallerNotOwnerNorApproved",
      "type": "error"
    },
    {
      "inputs": [],
      "name": "TransferFromIncorrectOwner",
      "type": "error"
    },
    {
      "inputs": [],
      "name": "TransferToNonERC721ReceiverImplementer",
      "type": "error"
    },
    {
      "inputs": [],
      "name": "TransferToZeroAddress",
      "type": "error"
    },
    {
      "inputs": [],
      "name": "URIQueryForNonexistentToken",
      "type": "error"
    },
    {
      "anonymous": false,
      "inputs": [
        {
          "indexed": true,
          "internalType": "address",
          "name": "owner",
          "type": "address"
        },
        {
          "indexed": true,
          "internalType": "address",
          "name": "approved",
          "type": "address"
        },
        {
          "indexed": true,
          "internalType": "uint256",
          "name": "tokenId",
          "type": "uint256"
        }
      ],
      "name": "Approval",
      "type": "event"
    },
    {
      "anonymous": false,
      "inputs": [
        {
          "indexed": true,
          "internalType": "address",
          "name": "owner",
          "type": "address"
        },
        {
          "indexed": true,
          "internalType": "address",
          "name": "operator",
          "type": "address"
        },
        {
          "indexed": false,
          "internalType": "bool",
          "name": "approved",
          "type": "bool"
        }
      ],
      "name": "ApprovalForAll",
      "type": "event"
    },
    {
      "anonymous": false,
      "inputs": [
        {
          "indexed": true,
          "internalType": "uint256",
          "name": "fromTokenId",
          "type": "uint256"
        },
        {
          "indexed": false,
          "internalType": "uint256",
          "name": "toTokenId",
          "type": "uint256"
        },
        {
          "indexed": true,
          "internalType": "address",
          "name": "from",
          "type": "address"
        },
        {
          "indexed": true,
          "internalType": "address",
          "name": "to",
          "type": "address"
        }
      ],
      "name": "ConsecutiveTransfer",
      "type": "event"
    },
    {
      "anonymous": false,
      "inputs": [
        {
          "indexed": true,
          "internalType": "address",
          "name": "previousOwner",
          "type": "address"
        },
        {
          "indexed": true,
          "internalType": "address",
          "name": "newOwner",
          "type": "address"
        }
      ],
      "name": "OwnershipTransferred",
      "type": "event"
    },
    {
      "anonymous": false,
      "inputs": [
        {
          "indexed": true,
          "internalType": "address",
          "name": "from",
          "type": "address"
        },
        {
          "indexed": true,
          "internalType": "address",
          "name": "to",
          "type": "address"
        },
        {
          "indexed": true,
          "internalType": "uint256",
          "name": "tokenId",
          "type": "uint256"
        }
      ],
      "name": "Transfer",
      "type": "event"
    },
    {
      "inputs": [
        {
          "internalType": "address[]",
          "name": "addresses",
          "type": "address[]"
        },
        {
          "internalType": "uint256[]",
          "name": "counts",
          "type": "uint256[]"
        }
      ],
      "name": "addWhitelists",
      "outputs": [],
      "stateMutability": "nonpayable",
      "type": "function"
    },
    {
      "inputs": [
        {
          "internalType": "address",
          "name": "to",
          "type": "address"
        },
        {
          "internalType": "uint256",
          "name": "tokenId",
          "type": "uint256"
        }
      ],
      "name": "approve",
      "outputs": [],
      "stateMutability": "nonpayable",
      "type": "function"
    },
    {
      "inputs": [
        {
          "internalType": "address",
          "name": "owner",
          "type": "address"
        }
      ],
      "name": "balanceOf",
      "outputs": [
        {
          "internalType": "uint256",
          "name": "",
          "type": "uint256"
        }
      ],
      "stateMutability": "view",
      "type": "function"
    },
    {
      "inputs": [],
      "name": "baseExtension",
      "outputs": [
        {
          "internalType": "string",
          "name": "",
          "type": "string"
        }
      ],
      "stateMutability": "view",
      "type": "function"
    },
    {
      "inputs": [
        {
          "internalType": "uint256[]",
          "name": "burnTokenIds",
          "type": "uint256[]"
        }
      ],
      "name": "burnMint",
      "outputs": [],
      "stateMutability": "payable",
      "type": "function"
    },
    {
      "inputs": [],
      "name": "burnMintCost",
      "outputs": [
        {
          "internalType": "uint256",
          "name": "",
          "type": "uint256"
        }
      ],
      "stateMutability": "view",
      "type": "function"
    },
    {
      "inputs": [
        {
          "internalType": "bool",
          "name": "_value",
          "type": "bool"
        }
      ],
      "name": "burnMintPause",
      "outputs": [],
      "stateMutability": "nonpayable",
      "type": "function"
    },
    {
      "inputs": [],
      "name": "burnMintPaused",
      "outputs": [
        {
          "internalType": "bool",
          "name": "",
          "type": "bool"
        }
      ],
      "stateMutability": "view",
      "type": "function"
    },
    {
      "inputs": [
        {
          "internalType": "uint256",
          "name": "tokenId",
          "type": "uint256"
        }
      ],
      "name": "exists",
      "outputs": [
        {
          "internalType": "bool",
          "name": "",
          "type": "bool"
        }
      ],
      "stateMutability": "view",
      "type": "function"
    },
    {
      "inputs": [
        {
          "internalType": "address",
          "name": "value",
          "type": "address"
        }
      ],
      "name": "getActualMaxMintAmount",
      "outputs": [
        {
          "internalType": "uint256",
          "name": "",
          "type": "uint256"
        }
      ],
      "stateMutability": "view",
      "type": "function"
    },
    {
      "inputs": [
        {
          "internalType": "uint256",
          "name": "tokenId",
          "type": "uint256"
        }
      ],
      "name": "getApproved",
      "outputs": [
        {
          "internalType": "address",
          "name": "",
          "type": "address"
        }
      ],
      "stateMutability": "view",
      "type": "function"
    },
    {
      "inputs": [],
      "name": "getMaxMintAmount",
      "outputs": [
        {
          "internalType": "uint256",
          "name": "",
          "type": "uint256"
        }
      ],
      "stateMutability": "view",
      "type": "function"
    },
    {
      "inputs": [],
      "name": "getTotalBurned",
      "outputs": [
        {
          "internalType": "uint256",
          "name": "",
          "type": "uint256"
        }
      ],
      "stateMutability": "view",
      "type": "function"
    },
    {
      "inputs": [
        {
          "internalType": "address",
          "name": "value",
          "type": "address"
        }
      ],
      "name": "getWhitelistCount",
      "outputs": [
        {
          "internalType": "uint256",
          "name": "",
          "type": "uint256"
        }
      ],
      "stateMutability": "view",
      "type": "function"
    },
    {
      "inputs": [
        {
          "internalType": "address",
          "name": "owner",
          "type": "address"
        },
        {
          "internalType": "address",
          "name": "operator",
          "type": "address"
        }
      ],
      "name": "isApprovedForAll",
      "outputs": [
        {
          "internalType": "bool",
          "name": "",
          "type": "bool"
        }
      ],
      "stateMutability": "view",
      "type": "function"
    },
    {
      "inputs": [],
      "name": "maxBurnMint",
      "outputs": [
        {
          "internalType": "uint256",
          "name": "",
          "type": "uint256"
        }
      ],
      "stateMutability": "view",
      "type": "function"
    },
    {
      "inputs": [],
      "name": "maxMintAmount",
      "outputs": [
        {
          "internalType": "uint256",
          "name": "",
          "type": "uint256"
        }
      ],
      "stateMutability": "view",
      "type": "function"
    },
    {
      "inputs": [],
      "name": "maxMintAmountForWhitelist",
      "outputs": [
        {
          "internalType": "uint256",
          "name": "",
          "type": "uint256"
        }
      ],
      "stateMutability": "view",
      "type": "function"
    },
    {
      "inputs": [],
      "name": "maxSupply",
      "outputs": [
        {
          "internalType": "uint256",
          "name": "",
          "type": "uint256"
        }
      ],
      "stateMutability": "view",
      "type": "function"
    },
    {
      "inputs": [
        {
          "internalType": "uint256",
          "name": "quantity",
          "type": "uint256"
        }
      ],
      "name": "mint",
      "outputs": [],
      "stateMutability": "payable",
      "type": "function"
    },
    {
      "inputs": [],
      "name": "mintCost",
      "outputs": [
        {
          "internalType": "uint256",
          "name": "",
          "type": "uint256"
        }
      ],
      "stateMutability": "view",
      "type": "function"
    },
    {
      "inputs": [],
      "name": "name",
      "outputs": [
        {
          "internalType": "string",
          "name": "",
          "type": "string"
        }
      ],
      "stateMutability": "view",
      "type": "function"
    },
    {
      "inputs": [],
      "name": "onlyWhitelisted",
      "outputs": [
        {
          "internalType": "bool",
          "name": "",
          "type": "bool"
        }
      ],
      "stateMutability": "view",
      "type": "function"
    },
    {
      "inputs": [],
      "name": "owner",
      "outputs": [
        {
          "internalType": "address",
          "name": "",
          "type": "address"
        }
      ],
      "stateMutability": "view",
      "type": "function"
    },
    {
      "inputs": [
        {
          "internalType": "uint256",
          "name": "tokenId",
          "type": "uint256"
        }
      ],
      "name": "ownerOf",
      "outputs": [
        {
          "internalType": "address",
          "name": "",
          "type": "address"
        }
      ],
      "stateMutability": "view",
      "type": "function"
    },
    {
      "inputs": [
        {
          "internalType": "bool",
          "name": "_state",
          "type": "bool"
        }
      ],
      "name": "pause",
      "outputs": [],
      "stateMutability": "nonpayable",
      "type": "function"
    },
    {
      "inputs": [],
      "name": "paused",
      "outputs": [
        {
          "internalType": "bool",
          "name": "",
          "type": "bool"
        }
      ],
      "stateMutability": "view",
      "type": "function"
    },
    {
      "inputs": [],
      "name": "renounceOwnership",
      "outputs": [],
      "stateMutability": "nonpayable",
      "type": "function"
    },
    {
      "inputs": [
        {
          "internalType": "address",
          "name": "from",
          "type": "address"
        },
        {
          "internalType": "address",
          "name": "to",
          "type": "address"
        },
        {
          "internalType": "uint256",
          "name": "tokenId",
          "type": "uint256"
        }
      ],
      "name": "safeTransferFrom",
      "outputs": [],
      "stateMutability": "nonpayable",
      "type": "function"
    },
    {
      "inputs": [
        {
          "internalType": "address",
          "name": "from",
          "type": "address"
        },
        {
          "internalType": "address",
          "name": "to",
          "type": "address"
        },
        {
          "internalType": "uint256",
          "name": "tokenId",
          "type": "uint256"
        },
        {
          "internalType": "bytes",
          "name": "_data",
          "type": "bytes"
        }
      ],
      "name": "safeTransferFrom",
      "outputs": [],
      "stateMutability": "nonpayable",
      "type": "function"
    },
    {
      "inputs": [
        {
          "internalType": "address",
          "name": "operator",
          "type": "address"
        },
        {
          "internalType": "bool",
          "name": "approved",
          "type": "bool"
        }
      ],
      "name": "setApprovalForAll",
      "outputs": [],
      "stateMutability": "nonpayable",
      "type": "function"
    },
    {
      "inputs": [
        {
          "internalType": "string",
          "name": "_value",
          "type": "string"
        }
      ],
      "name": "setBaseExtension",
      "outputs": [],
      "stateMutability": "nonpayable",
      "type": "function"
    },
    {
      "inputs": [
        {
          "internalType": "string",
          "name": "_newBaseURI",
          "type": "string"
        }
      ],
      "name": "setBaseURI",
      "outputs": [],
      "stateMutability": "nonpayable",
      "type": "function"
    },
    {
      "inputs": [
        {
          "internalType": "uint256",
          "name": "_value",
          "type": "uint256"
        }
      ],
      "name": "setBurnMintCost",
      "outputs": [],
      "stateMutability": "nonpayable",
      "type": "function"
    },
    {
      "inputs": [
        {
          "internalType": "uint256",
          "name": "_value",
          "type": "uint256"
        }
      ],
      "name": "setMaxBurnMint",
      "outputs": [],
      "stateMutability": "nonpayable",
      "type": "function"
    },
    {
      "inputs": [
        {
          "internalType": "uint256",
          "name": "_newMaxMintAmount",
          "type": "uint256"
        }
      ],
      "name": "setMaxMintAmount",
      "outputs": [],
      "stateMutability": "nonpayable",
      "type": "function"
    },
    {
      "inputs": [
        {
          "internalType": "uint256",
          "name": "_value",
          "type": "uint256"
        }
      ],
      "name": "setMaxMintAmountForWhiteList",
      "outputs": [],
      "stateMutability": "nonpayable",
      "type": "function"
    },
    {
      "inputs": [
        {
          "internalType": "uint256",
          "name": "_value",
          "type": "uint256"
        }
      ],
      "name": "setMaxSupply",
      "outputs": [],
      "stateMutability": "nonpayable",
      "type": "function"
    },
    {
      "inputs": [
        {
          "internalType": "uint256",
          "name": "_newCost",
          "type": "uint256"
        }
      ],
      "name": "setMintCost",
      "outputs": [],
      "stateMutability": "nonpayable",
      "type": "function"
    },
    {
      "inputs": [
        {
          "internalType": "bool",
          "name": "_state",
          "type": "bool"
        }
      ],
      "name": "setOnlyWhitelisted",
      "outputs": [],
      "stateMutability": "nonpayable",
      "type": "function"
    },
    {
      "inputs": [
        {
          "internalType": "bytes4",
          "name": "interfaceId",
          "type": "bytes4"
        }
      ],
      "name": "supportsInterface",
      "outputs": [
        {
          "internalType": "bool",
          "name": "",
          "type": "bool"
        }
      ],
      "stateMutability": "view",
      "type": "function"
    },
    {
      "inputs": [],
      "name": "symbol",
      "outputs": [
        {
          "internalType": "string",
          "name": "",
          "type": "string"
        }
      ],
      "stateMutability": "view",
      "type": "function"
    },
    {
      "inputs": [
        {
          "internalType": "uint256",
          "name": "tokenId",
          "type": "uint256"
        }
      ],
      "name": "tokenURI",
      "outputs": [
        {
          "internalType": "string",
          "name": "",
          "type": "string"
        }
      ],
      "stateMutability": "view",
      "type": "function"
    },
    {
      "inputs": [],
      "name": "totalSupply",
      "outputs": [
        {
          "internalType": "uint256",
          "name": "",
          "type": "uint256"
        }
      ],
      "stateMutability": "view",
      "type": "function"
    },
    {
      "inputs": [
        {
          "internalType": "address",
          "name": "from",
          "type": "address"
        },
        {
          "internalType": "address",
          "name": "to",
          "type": "address"
        },
        {
          "internalType": "uint256",
          "name": "tokenId",
          "type": "uint256"
        }
      ],
      "name": "transferFrom",
      "outputs": [],
      "stateMutability": "nonpayable",
      "type": "function"
    },
    {
      "inputs": [
        {
          "internalType": "address",
          "name": "newOwner",
          "type": "address"
        }
      ],
      "name": "transferOwnership",
      "outputs": [],
      "stateMutability": "nonpayable",
      "type": "function"
    },
    {
      "inputs": [
        {
          "internalType": "address",
          "name": "",
          "type": "address"
        }
      ],
      "name": "whitelistCounts",
      "outputs": [
        {
          "internalType": "uint256",
          "name": "",
          "type": "uint256"
        }
      ],
      "stateMutability": "view",
      "type": "function"
    },
    {
      "inputs": [],
      "name": "withdraw",
      "outputs": [],
      "stateMutability": "payable",
      "type": "function"
    },
    {
      "inputs": [],
      "name": "withdrawAddress",
      "outputs": [
        {
          "internalType": "address",
          "name": "",
          "type": "address"
        }
      ],
      "stateMutability": "view",
      "type": "function"
    }
  ],
  "bytecode": "0x60806040526040518060400160405280600581526020017f2e6a736f6e000000000000000000000000000000000000000000000000000000815250600a9080519060200190620000519291906200087e565b506000600b556000600c556103e8600d5560c8600e556005600f55600a6010556001601160006101000a81548160ff0219169083151502179055506001601160016101000a81548160ff0219169083151502179055506000601160026101000a81548160ff021916908315150217905550348015620000cf57600080fd5b506040518060400160405280600681526020017f4d79204e465400000000000000000000000000000000000000000000000000008152506040518060400160405280600381526020017f4d4e5400000000000000000000000000000000000000000000000000000000008152508160029080519060200190620001549291906200087e565b5080600390805190602001906200016d9291906200087e565b506200017e6200020660201b60201c565b6000819055505050620001a66200019a6200020f60201b60201c565b6200021760201b60201c565b620001ec6040518060400160405280600781526020017f697066733a2f2f00000000000000000000000000000000000000000000000000815250620002dd60201b60201c565b620002006000600a6200030960201b60201c565b62000c02565b60006001905090565b600033905090565b6000600860009054906101000a900473ffffffffffffffffffffffffffffffffffffffff16905081600860006101000a81548173ffffffffffffffffffffffffffffffffffffffff021916908373ffffffffffffffffffffffffffffffffffffffff1602179055508173ffffffffffffffffffffffffffffffffffffffff168173ffffffffffffffffffffffffffffffffffffffff167f8be0079c531659141344cd1fd0a4f28419497f9722a3daafe3b4186f6b6457e060405160405180910390a35050565b620002ed6200032f60201b60201c565b8060099080519060200190620003059291906200087e565b5050565b6200032b828260405180602001604052806000815250620003c060201b60201c565b5050565b6200033f6200020f60201b60201c565b73ffffffffffffffffffffffffffffffffffffffff16620003656200047160201b60201c565b73ffffffffffffffffffffffffffffffffffffffff1614620003be576040517f08c379a0000000000000000000000000000000000000000000000000000000008152600401620003b5906200098f565b60405180910390fd5b565b620003d283836200049b60201b60201c565b60008373ffffffffffffffffffffffffffffffffffffffff163b146200046c57600080549050600083820390505b6200041b60008683806001019450866200068460201b60201c565b62000452576040517fd1a57ed600000000000000000000000000000000000000000000000000000000815260040160405180910390fd5b818110620004005781600054146200046957600080fd5b50505b505050565b6000600860009054906101000a900473ffffffffffffffffffffffffffffffffffffffff16905090565b6000805490506000821415620004dd576040517fb562e8dd00000000000000000000000000000000000000000000000000000000815260040160405180910390fd5b620004f26000848385620007f660201b60201c565b600160406001901b178202600560008573ffffffffffffffffffffffffffffffffffffffff1673ffffffffffffffffffffffffffffffffffffffff168152602001908152602001600020600082825401925050819055506200058183620005636000866000620007fc60201b60201c565b62000574856200082c60201b60201c565b176200083c60201b60201c565b6004600083815260200190815260200160002081905550600080838301905073ffffffffffffffffffffffffffffffffffffffff85169150828260007fddf252ad1be2c89b69c2b068fc378daa952ba7f163c4a11628f55a4df523b3ef600080a4600183015b8181146200062457808360007fddf252ad1be2c89b69c2b068fc378daa952ba7f163c4a11628f55a4df523b3ef600080a4600181019050620005e7565b50600082141562000661576040517f2e07630000000000000000000000000000000000000000000000000000000000815260040160405180910390fd5b8060008190555050506200067f60008483856200086760201b60201c565b505050565b60008373ffffffffffffffffffffffffffffffffffffffff1663150b7a02620006b26200086d60201b60201c565b8786866040518563ffffffff1660e01b8152600401620006d6949392919062000ab5565b602060405180830381600087803b158015620006f157600080fd5b505af19250505080156200072557506040513d601f19601f8201168201806040525081019062000722919062000b6b565b60015b620007a3573d806000811462000758576040519150601f19603f3d011682016040523d82523d6000602084013e6200075d565b606091505b506000815114156200079b576040517fd1a57ed600000000000000000000000000000000000000000000000000000000815260040160405180910390fd5b805181602001fd5b63150b7a0260e01b7bffffffffffffffffffffffffffffffffffffffffffffffffffffffff1916817bffffffffffffffffffffffffffffffffffffffffffffffffffffffff191614915050949350505050565b50505050565b60008060e883901c905060e86200081b8686846200087560201b60201c565b62ffffff16901b9150509392505050565b60006001821460e11b9050919050565b600073ffffffffffffffffffffffffffffffffffffffff83169250814260a01b178317905092915050565b50505050565b600033905090565b60009392505050565b8280546200088c9062000bcc565b90600052602060002090601f016020900481019282620008b05760008555620008fc565b82601f10620008cb57805160ff1916838001178555620008fc565b82800160010185558215620008fc579182015b82811115620008fb578251825591602001919060010190620008de565b5b5090506200090b91906200090f565b5090565b5b808211156200092a57600081600090555060010162000910565b5090565b600082825260208201905092915050565b7f4f776e61626c653a2063616c6c6572206973206e6f7420746865206f776e6572600082015250565b6000620009776020836200092e565b915062000984826200093f565b602082019050919050565b60006020820190508181036000830152620009aa8162000968565b9050919050565b600073ffffffffffffffffffffffffffffffffffffffff82169050919050565b6000620009de82620009b1565b9050919050565b620009f081620009d1565b82525050565b6000819050919050565b62000a0b81620009f6565b82525050565b600081519050919050565b600082825260208201905092915050565b60005b8381101562000a4d57808201518184015260208101905062000a30565b8381111562000a5d576000848401525b50505050565b6000601f19601f8301169050919050565b600062000a818262000a11565b62000a8d818562000a1c565b935062000a9f81856020860162000a2d565b62000aaa8162000a63565b840191505092915050565b600060808201905062000acc6000830187620009e5565b62000adb6020830186620009e5565b62000aea604083018562000a00565b818103606083015262000afe818462000a74565b905095945050505050565b600080fd5b60007fffffffff0000000000000000000000000000000000000000000000000000000082169050919050565b62000b458162000b0e565b811462000b5157600080fd5b50565b60008151905062000b658162000b3a565b92915050565b60006020828403121562000b845762000b8362000b09565b5b600062000b948482850162000b54565b91505092915050565b7f4e487b7100000000000000000000000000000000000000000000000000000000600052602260045260246000fd5b6000600282049050600182168062000be557607f821691505b6020821081141562000bfc5762000bfb62000b9d565b5b50919050565b613e368062000c126000396000f3fe6080604052600436106102ad5760003560e01c80637e04096911610175578063bdb4b848116100dc578063d5abeb0111610095578063e985e9c51161006f578063e985e9c514610a5e578063f2fde38b14610a9b578063f4fce61c14610ac4578063fa85c6cb14610aed576102ad565b8063d5abeb01146109df578063d6e7b8e414610a0a578063da3ef23f14610a35576102ad565b8063bdb4b848146108bb578063c1b19de6146108e6578063c668286214610911578063c87b56dd1461093c578063d2c777e614610979578063d4b0a23b146109b6576102ad565b80639c70b5121161012e5780639c70b512146107ce578063a0712d68146107f9578063a210c80414610815578063a22cb4651461083e578063b55cd04b14610867578063b88d4fde14610892576102ad565b80637e040969146106df578063800deb7e146106fb5780638545f4ea146107245780638da5cb5b1461074d57806395d89b41146107785780639c02757a146107a3576102ad565b80633ccfd60b116102195780636352211e116101d25780636352211e146105d1578063682a3ad61461060e5780636e3bd6b1146106395780636f8b44b01461066257806370a082311461068b578063715018a6146106c8576102ad565b80633ccfd60b146104d057806342842e0e146104da578063490645df146105035780634f558e791461054057806355f804b31461057d5780635c975abb146105a6576102ad565b8063095ea7b31161026b578063095ea7b3146103d45780631581b600146103fd57806318160ddd14610428578063239c70ae1461045357806323b872dd1461047e5780633c952764146104a7576102ad565b8062bad77a146102b257806301ffc9a7146102dd57806302329a291461031a57806306fdde0314610343578063081812fc1461036e578063088a4ed0146103ab575b600080fd5b3480156102be57600080fd5b506102c7610b2a565b6040516102d49190612cb0565b60405180910390f35b3480156102e957600080fd5b5061030460048036038101906102ff9190612d37565b610b3d565b6040516103119190612cb0565b60405180910390f35b34801561032657600080fd5b50610341600480360381019061033c9190612d90565b610bcf565b005b34801561034f57600080fd5b50610358610bf4565b6040516103659190612e56565b60405180910390f35b34801561037a57600080fd5b5061039560048036038101906103909190612eae565b610c86565b6040516103a29190612f1c565b60405180910390f35b3480156103b757600080fd5b506103d260048036038101906103cd9190612eae565b610d05565b005b3480156103e057600080fd5b506103fb60048036038101906103f69190612f63565b610d17565b005b34801561040957600080fd5b50610412610e5b565b60405161041f9190612f1c565b60405180910390f35b34801561043457600080fd5b5061043d610e60565b60405161044a9190612fb2565b60405180910390f35b34801561045f57600080fd5b50610468610e77565b6040516104759190612fb2565b60405180910390f35b34801561048a57600080fd5b506104a560048036038101906104a09190612fcd565b610e7d565b005b3480156104b357600080fd5b506104ce60048036038101906104c99190612d90565b6111a2565b005b6104d86111c7565b005b3480156104e657600080fd5b5061050160048036038101906104fc9190612fcd565b611248565b005b34801561050f57600080fd5b5061052a60048036038101906105259190613020565b611268565b6040516105379190612fb2565b60405180910390f35b34801561054c57600080fd5b5061056760048036038101906105629190612eae565b6112bc565b6040516105749190612cb0565b60405180910390f35b34801561058957600080fd5b506105a4600480360381019061059f9190613182565b6112ce565b005b3480156105b257600080fd5b506105bb6112f0565b6040516105c89190612cb0565b60405180910390f35b3480156105dd57600080fd5b506105f860048036038101906105f39190612eae565b611303565b6040516106059190612f1c565b60405180910390f35b34801561061a57600080fd5b50610623611315565b6040516106309190612fb2565b60405180910390f35b34801561064557600080fd5b50610660600480360381019061065b9190612eae565b61131b565b005b34801561066e57600080fd5b5061068960048036038101906106849190612eae565b61132d565b005b34801561069757600080fd5b506106b260048036038101906106ad9190613020565b61133f565b6040516106bf9190612fb2565b60405180910390f35b3480156106d457600080fd5b506106dd6113f8565b005b6106f960048036038101906106f49190613293565b61140c565b005b34801561070757600080fd5b50610722600480360381019061071d9190612d90565b611723565b005b34801561073057600080fd5b5061074b60048036038101906107469190612eae565b611748565b005b34801561075957600080fd5b5061076261175a565b60405161076f9190612f1c565b60405180910390f35b34801561078457600080fd5b5061078d611784565b60405161079a9190612e56565b60405180910390f35b3480156107af57600080fd5b506107b8611816565b6040516107c59190612fb2565b60405180910390f35b3480156107da57600080fd5b506107e361181c565b6040516107f09190612cb0565b60405180910390f35b610813600480360381019061080e9190612eae565b61182f565b005b34801561082157600080fd5b5061083c60048036038101906108379190612eae565b611aa9565b005b34801561084a57600080fd5b50610865600480360381019061086091906132dc565b611abb565b005b34801561087357600080fd5b5061087c611c33565b6040516108899190612fb2565b60405180910390f35b34801561089e57600080fd5b506108b960048036038101906108b491906133bd565b611c42565b005b3480156108c757600080fd5b506108d0611cb5565b6040516108dd9190612fb2565b60405180910390f35b3480156108f257600080fd5b506108fb611cbb565b6040516109089190612fb2565b60405180910390f35b34801561091d57600080fd5b50610926611cc1565b6040516109339190612e56565b60405180910390f35b34801561094857600080fd5b50610963600480360381019061095e9190612eae565b611d4f565b6040516109709190612e56565b60405180910390f35b34801561098557600080fd5b506109a0600480360381019061099b9190613020565b611d83565b6040516109ad9190612fb2565b60405180910390f35b3480156109c257600080fd5b506109dd60048036038101906109d89190613503565b611d9b565b005b3480156109eb57600080fd5b506109f4611e4d565b604051610a019190612fb2565b60405180910390f35b348015610a1657600080fd5b50610a1f611e53565b604051610a2c9190612fb2565b60405180910390f35b348015610a4157600080fd5b50610a5c6004803603810190610a579190613182565b611e84565b005b348015610a6a57600080fd5b50610a856004803603810190610a80919061357b565b611ea6565b604051610a929190612cb0565b60405180910390f35b348015610aa757600080fd5b50610ac26004803603810190610abd9190613020565b611f3a565b005b348015610ad057600080fd5b50610aeb6004803603810190610ae69190612eae565b611fbe565b005b348015610af957600080fd5b50610b146004803603810190610b0f9190613020565b611fd0565b604051610b219190612fb2565b60405180910390f35b601160019054906101000a900460ff1681565b60006301ffc9a760e01b827bffffffffffffffffffffffffffffffffffffffffffffffffffffffff19161480610b9857506380ac58cd60e01b827bffffffffffffffffffffffffffffffffffffffffffffffffffffffff1916145b80610bc85750635b5e139f60e01b827bffffffffffffffffffffffffffffffffffffffffffffffffffffffff1916145b9050919050565b610bd7612019565b80601160006101000a81548160ff02191690831515021790555050565b606060028054610c03906135ea565b80601f0160208091040260200160405190810160405280929190818152602001828054610c2f906135ea565b8015610c7c5780601f10610c5157610100808354040283529160200191610c7c565b820191906000526020600020905b815481529060010190602001808311610c5f57829003601f168201915b5050505050905090565b6000610c9182612097565b610cc7576040517fcf4700e400000000000000000000000000000000000000000000000000000000815260040160405180910390fd5b6006600083815260200190815260200160002060000160009054906101000a900473ffffffffffffffffffffffffffffffffffffffff169050919050565b610d0d612019565b80600f8190555050565b6000610d2282611303565b90508073ffffffffffffffffffffffffffffffffffffffff16610d436120f6565b73ffffffffffffffffffffffffffffffffffffffff1614610da657610d6f81610d6a6120f6565b611ea6565b610da5576040517fcfb3b94200000000000000000000000000000000000000000000000000000000815260040160405180910390fd5b5b826006600084815260200190815260200160002060000160006101000a81548173ffffffffffffffffffffffffffffffffffffffff021916908373ffffffffffffffffffffffffffffffffffffffff160217905550818373ffffffffffffffffffffffffffffffffffffffff168273ffffffffffffffffffffffffffffffffffffffff167f8c5be1e5ebec7d5bd14f71427d1e84f3dd0314c0f7b2291e5b200ac8c7c3b92560405160405180910390a4505050565b600081565b6000610e6a6120fe565b6001546000540303905090565b600f5481565b6000610e8882612107565b90508373ffffffffffffffffffffffffffffffffffffffff168173ffffffffffffffffffffffffffffffffffffffff1614610eef576040517fa114810000000000000000000000000000000000000000000000000000000000815260040160405180910390fd5b600080610efb846121d5565b91509150610f118187610f0c6120f6565b6121fc565b610f5d57610f2686610f216120f6565b611ea6565b610f5c576040517f59c896be00000000000000000000000000000000000000000000000000000000815260040160405180910390fd5b5b600073ffffffffffffffffffffffffffffffffffffffff168573ffffffffffffffffffffffffffffffffffffffff161415610fc4576040517fea553b3400000000000000000000000000000000000000000000000000000000815260040160405180910390fd5b610fd18686866001612240565b8015610fdc57600082555b600560008773ffffffffffffffffffffffffffffffffffffffff1673ffffffffffffffffffffffffffffffffffffffff168152602001908152602001600020600081546001900391905081905550600560008673ffffffffffffffffffffffffffffffffffffffff1673ffffffffffffffffffffffffffffffffffffffff16815260200190815260200160002060008154600101919050819055506110aa85611086888887612246565b7c02000000000000000000000000000000000000000000000000000000001761226e565b600460008681526020019081526020016000208190555060007c02000000000000000000000000000000000000000000000000000000008416141561113257600060018501905060006004600083815260200190815260200160002054141561113057600054811461112f578360046000838152602001908152602001600020819055505b5b505b838573ffffffffffffffffffffffffffffffffffffffff168773ffffffffffffffffffffffffffffffffffffffff167fddf252ad1be2c89b69c2b068fc378daa952ba7f163c4a11628f55a4df523b3ef60405160405180910390a461119a8686866001612299565b505050505050565b6111aa612019565b80601160026101000a81548160ff02191690831515021790555050565b6111cf612019565b60008073ffffffffffffffffffffffffffffffffffffffff16476040516111f59061364d565b60006040518083038185875af1925050503d8060008114611232576040519150601f19603f3d011682016040523d82523d6000602084013e611237565b606091505b505090508061124557600080fd5b50565b61126383838360405180602001604052806000815250611c42565b505050565b600060011515601160029054906101000a900460ff16151514156112b157600061129183611fd0565b90506010548111156112a8576010549150506112b7565b809150506112b7565b600f5490505b919050565b60006112c782612097565b9050919050565b6112d6612019565b80600990805190602001906112ec929190612bf2565b5050565b601160009054906101000a900460ff1681565b600061130e82612107565b9050919050565b600e5481565b611323612019565b80600c8190555050565b611335612019565b80600d8190555050565b60008073ffffffffffffffffffffffffffffffffffffffff168273ffffffffffffffffffffffffffffffffffffffff1614156113a7576040517f8f4eb60400000000000000000000000000000000000000000000000000000000815260040160405180910390fd5b67ffffffffffffffff600560008473ffffffffffffffffffffffffffffffffffffffff1673ffffffffffffffffffffffffffffffffffffffff16815260200190815260200160002054169050919050565b611400612019565b61140a600061229f565b565b601160019054906101000a900460ff161561145c576040517f08c379a0000000000000000000000000000000000000000000000000000000008152600401611453906136ae565b60405180910390fd5b8051611466611e53565b8111156114a8576040517f08c379a000000000000000000000000000000000000000000000000000000000815260040161149f90613740565b60405180910390fd5b815180600b546114b8919061378f565b3410156114fa576040517f08c379a00000000000000000000000000000000000000000000000000000000081526004016114f190613835565b60405180910390fd5b8251600e54611507612365565b826115129190613855565b1115611553576040517f08c379a000000000000000000000000000000000000000000000000000000000815260040161154a906138f7565b60405180910390fd5b8351601160029054906101000a900460ff1615611670576000601260003373ffffffffffffffffffffffffffffffffffffffff1673ffffffffffffffffffffffffffffffffffffffff1681526020019081526020016000205414156115ed576040517f08c379a00000000000000000000000000000000000000000000000000000000081526004016115e490613963565b60405180910390fd5b80601260003373ffffffffffffffffffffffffffffffffffffffff1673ffffffffffffffffffffffffffffffffffffffff16815260200190815260200160002054101561166f576040517f08c379a0000000000000000000000000000000000000000000000000000000008152600401611666906139cf565b60405180910390fd5b5b61167a855161236f565b60005b855181101561170957600086828151811061169b5761169a6139ef565b5b602002602001015190506116ae81611303565b73ffffffffffffffffffffffffffffffffffffffff166116cc612416565b73ffffffffffffffffffffffffffffffffffffffff16146116ec57600080fd5b6116f58161241e565b50808061170190613a1e565b91505061167d565b5061171c611715612416565b865161242c565b5050505050565b61172b612019565b80601160016101000a81548160ff02191690831515021790555050565b611750612019565b80600b8190555050565b6000600860009054906101000a900473ffffffffffffffffffffffffffffffffffffffff16905090565b606060038054611793906135ea565b80601f01602080910402602001604051908101604052809291908181526020018280546117bf906135ea565b801561180c5780601f106117e15761010080835404028352916020019161180c565b820191906000526020600020905b8154815290600101906020018083116117ef57829003601f168201915b5050505050905090565b600c5481565b601160029054906101000a900460ff1681565b601160009054906101000a900460ff161561187f576040517f08c379a000000000000000000000000000000000000000000000000000000000815260040161187690613ab3565b60405180910390fd5b80600d5461188b610e60565b826118969190613855565b11156118d7576040517f08c379a00000000000000000000000000000000000000000000000000000000081526004016118ce906136ae565b60405180910390fd5b816118e0611e53565b811115611922576040517f08c379a000000000000000000000000000000000000000000000000000000000815260040161191990613740565b60405180910390fd5b8280600b54611931919061378f565b341015611973576040517f08c379a000000000000000000000000000000000000000000000000000000000815260040161196a90613835565b60405180910390fd5b83601160029054906101000a900460ff1615611a8f576000601260003373ffffffffffffffffffffffffffffffffffffffff1673ffffffffffffffffffffffffffffffffffffffff168152602001908152602001600020541415611a0c576040517f08c379a0000000000000000000000000000000000000000000000000000000008152600401611a0390613963565b60405180910390fd5b80601260003373ffffffffffffffffffffffffffffffffffffffff1673ffffffffffffffffffffffffffffffffffffffff168152602001908152602001600020541015611a8e576040517f08c379a0000000000000000000000000000000000000000000000000000000008152600401611a85906139cf565b60405180910390fd5b5b611a988561236f565b611aa2338661242c565b5050505050565b611ab1612019565b80600e8190555050565b611ac36120f6565b73ffffffffffffffffffffffffffffffffffffffff168273ffffffffffffffffffffffffffffffffffffffff161415611b28576040517fb06307db00000000000000000000000000000000000000000000000000000000815260040160405180910390fd5b8060076000611b356120f6565b73ffffffffffffffffffffffffffffffffffffffff1673ffffffffffffffffffffffffffffffffffffffff16815260200190815260200160002060008473ffffffffffffffffffffffffffffffffffffffff1673ffffffffffffffffffffffffffffffffffffffff16815260200190815260200160002060006101000a81548160ff0219169083151502179055508173ffffffffffffffffffffffffffffffffffffffff16611be26120f6565b73ffffffffffffffffffffffffffffffffffffffff167f17307eab39ab6107e8899845ad3d59bd9653f200f220920489ca2b5937696c3183604051611c279190612cb0565b60405180910390a35050565b6000611c3d612365565b905090565b611c4d848484610e7d565b60008373ffffffffffffffffffffffffffffffffffffffff163b14611caf57611c788484848461244a565b611cae576040517fd1a57ed600000000000000000000000000000000000000000000000000000000815260040160405180910390fd5b5b50505050565b600b5481565b60105481565b600a8054611cce906135ea565b80601f0160208091040260200160405190810160405280929190818152602001828054611cfa906135ea565b8015611d475780601f10611d1c57610100808354040283529160200191611d47565b820191906000526020600020905b815481529060010190602001808311611d2a57829003601f168201915b505050505081565b6060611d5a826125aa565b600a604051602001611d6d929190613ba3565b6040516020818303038152906040529050919050565b60126020528060005260406000206000915090505481565b611da3612019565b8051825114611db157600080fd5b60005b8251811015611e4857818181518110611dd057611dcf6139ef565b5b602002602001015160126000858481518110611def57611dee6139ef565b5b602002602001015173ffffffffffffffffffffffffffffffffffffffff1673ffffffffffffffffffffffffffffffffffffffff168152602001908152602001600020819055508080611e4090613a1e565b915050611db4565b505050565b600d5481565b600060011515601160029054906101000a900460ff1615151415611e7b576010549050611e81565b600f5490505b90565b611e8c612019565b80600a9080519060200190611ea2929190612bf2565b5050565b6000600760008473ffffffffffffffffffffffffffffffffffffffff1673ffffffffffffffffffffffffffffffffffffffff16815260200190815260200160002060008373ffffffffffffffffffffffffffffffffffffffff1673ffffffffffffffffffffffffffffffffffffffff16815260200190815260200160002060009054906101000a900460ff16905092915050565b611f42612019565b600073ffffffffffffffffffffffffffffffffffffffff168173ffffffffffffffffffffffffffffffffffffffff161415611fb2576040517f08c379a0000000000000000000000000000000000000000000000000000000008152600401611fa990613c39565b60405180910390fd5b611fbb8161229f565b50565b611fc6612019565b8060108190555050565b6000601260008373ffffffffffffffffffffffffffffffffffffffff1673ffffffffffffffffffffffffffffffffffffffff168152602001908152602001600020549050919050565b612021612416565b73ffffffffffffffffffffffffffffffffffffffff1661203f61175a565b73ffffffffffffffffffffffffffffffffffffffff1614612095576040517f08c379a000000000000000000000000000000000000000000000000000000000815260040161208c90613ca5565b60405180910390fd5b565b6000816120a26120fe565b111580156120b1575060005482105b80156120ef575060007c0100000000000000000000000000000000000000000000000000000000600460008581526020019081526020016000205416145b9050919050565b600033905090565b60006001905090565b600080829050806121166120fe565b1161219e5760005481101561219d5760006004600083815260200190815260200160002054905060007c01000000000000000000000000000000000000000000000000000000008216141561219b575b6000811415612191576004600083600190039350838152602001908152602001600020549050612166565b80925050506121d0565b505b5b6040517fdf2d9b4200000000000000000000000000000000000000000000000000000000815260040160405180910390fd5b919050565b60008060006006600085815260200190815260200160002090508092508254915050915091565b600073ffffffffffffffffffffffffffffffffffffffff8316925073ffffffffffffffffffffffffffffffffffffffff821691508382148383141790509392505050565b50505050565b60008060e883901c905060e861225d868684612649565b62ffffff16901b9150509392505050565b600073ffffffffffffffffffffffffffffffffffffffff83169250814260a01b178317905092915050565b50505050565b6000600860009054906101000a900473ffffffffffffffffffffffffffffffffffffffff16905081600860006101000a81548173ffffffffffffffffffffffffffffffffffffffff021916908373ffffffffffffffffffffffffffffffffffffffff1602179055508173ffffffffffffffffffffffffffffffffffffffff168173ffffffffffffffffffffffffffffffffffffffff167f8be0079c531659141344cd1fd0a4f28419497f9722a3daafe3b4186f6b6457e060405160405180910390a35050565b6000600154905090565b601160029054906101000a900460ff16156124135780601260003373ffffffffffffffffffffffffffffffffffffffff1673ffffffffffffffffffffffffffffffffffffffff168152602001908152602001600020546123cf9190613cc5565b601260003373ffffffffffffffffffffffffffffffffffffffff1673ffffffffffffffffffffffffffffffffffffffff168152602001908152602001600020819055505b50565b600033905090565b612429816000612652565b50565b6124468282604051806020016040528060008152506128a6565b5050565b60008373ffffffffffffffffffffffffffffffffffffffff1663150b7a026124706120f6565b8786866040518563ffffffff1660e01b81526004016124929493929190613d4e565b602060405180830381600087803b1580156124ac57600080fd5b505af19250505080156124dd57506040513d601f19601f820116820180604052508101906124da9190613daf565b60015b612557573d806000811461250d576040519150601f19603f3d011682016040523d82523d6000602084013e612512565b606091505b5060008151141561254f576040517fd1a57ed600000000000000000000000000000000000000000000000000000000815260040160405180910390fd5b805181602001fd5b63150b7a0260e01b7bffffffffffffffffffffffffffffffffffffffffffffffffffffffff1916817bffffffffffffffffffffffffffffffffffffffffffffffffffffffff191614915050949350505050565b60606125b582612097565b6125eb576040517fa14c4b5000000000000000000000000000000000000000000000000000000000815260040160405180910390fd5b60006125f5612943565b90506000815114156126165760405180602001604052806000815250612641565b80612620846129d5565b604051602001612631929190613ddc565b6040516020818303038152906040525b915050919050565b60009392505050565b600061265d83612107565b90506000819050600080612670866121d5565b9150915084156126d95761268c81846126876120f6565b6121fc565b6126d8576126a18361269c6120f6565b611ea6565b6126d7576040517f59c896be00000000000000000000000000000000000000000000000000000000815260040160405180910390fd5b5b5b6126e7836000886001612240565b80156126f257600082555b600160806001901b03600560008573ffffffffffffffffffffffffffffffffffffffff1673ffffffffffffffffffffffffffffffffffffffff1681526020019081526020016000206000828254019250508190555061279a8361275785600088612246565b7c02000000000000000000000000000000000000000000000000000000007c0100000000000000000000000000000000000000000000000000000000171761226e565b600460008881526020019081526020016000208190555060007c02000000000000000000000000000000000000000000000000000000008516141561282257600060018701905060006004600083815260200190815260200160002054141561282057600054811461281f578460046000838152602001908152602001600020819055505b5b505b85600073ffffffffffffffffffffffffffffffffffffffff168473ffffffffffffffffffffffffffffffffffffffff167fddf252ad1be2c89b69c2b068fc378daa952ba7f163c4a11628f55a4df523b3ef60405160405180910390a461288c836000886001612299565b600160008154809291906001019190505550505050505050565b6128b08383612a25565b60008373ffffffffffffffffffffffffffffffffffffffff163b1461293e57600080549050600083820390505b6128f0600086838060010194508661244a565b612926576040517fd1a57ed600000000000000000000000000000000000000000000000000000000815260040160405180910390fd5b8181106128dd57816000541461293b57600080fd5b50505b505050565b606060098054612952906135ea565b80601f016020809104026020016040519081016040528092919081815260200182805461297e906135ea565b80156129cb5780601f106129a0576101008083540402835291602001916129cb565b820191906000526020600020905b8154815290600101906020018083116129ae57829003601f168201915b5050505050905090565b606060806040510190508060405280825b600115612a1157600183039250600a81066030018353600a8104905080612a0c57612a11565b6129e6565b508181036020830392508083525050919050565b6000805490506000821415612a66576040517fb562e8dd00000000000000000000000000000000000000000000000000000000815260040160405180910390fd5b612a736000848385612240565b600160406001901b178202600560008573ffffffffffffffffffffffffffffffffffffffff1673ffffffffffffffffffffffffffffffffffffffff16815260200190815260200160002060008282540192505081905550612aea83612adb6000866000612246565b612ae485612be2565b1761226e565b6004600083815260200190815260200160002081905550600080838301905073ffffffffffffffffffffffffffffffffffffffff85169150828260007fddf252ad1be2c89b69c2b068fc378daa952ba7f163c4a11628f55a4df523b3ef600080a4600183015b818114612b8b57808360007fddf252ad1be2c89b69c2b068fc378daa952ba7f163c4a11628f55a4df523b3ef600080a4600181019050612b50565b506000821415612bc7576040517f2e07630000000000000000000000000000000000000000000000000000000000815260040160405180910390fd5b806000819055505050612bdd6000848385612299565b505050565b60006001821460e11b9050919050565b828054612bfe906135ea565b90600052602060002090601f016020900481019282612c205760008555612c67565b82601f10612c3957805160ff1916838001178555612c67565b82800160010185558215612c67579182015b82811115612c66578251825591602001919060010190612c4b565b5b509050612c749190612c78565b5090565b5b80821115612c91576000816000905550600101612c79565b5090565b60008115159050919050565b612caa81612c95565b82525050565b6000602082019050612cc56000830184612ca1565b92915050565b6000604051905090565b600080fd5b600080fd5b60007fffffffff0000000000000000000000000000000000000000000000000000000082169050919050565b612d1481612cdf565b8114612d1f57600080fd5b50565b600081359050612d3181612d0b565b92915050565b600060208284031215612d4d57612d4c612cd5565b5b6000612d5b84828501612d22565b91505092915050565b612d6d81612c95565b8114612d7857600080fd5b50565b600081359050612d8a81612d64565b92915050565b600060208284031215612da657612da5612cd5565b5b6000612db484828501612d7b565b91505092915050565b600081519050919050565b600082825260208201905092915050565b60005b83811015612df7578082015181840152602081019050612ddc565b83811115612e06576000848401525b50505050565b6000601f19601f8301169050919050565b6000612e2882612dbd565b612e328185612dc8565b9350612e42818560208601612dd9565b612e4b81612e0c565b840191505092915050565b60006020820190508181036000830152612e708184612e1d565b905092915050565b6000819050919050565b612e8b81612e78565b8114612e9657600080fd5b50565b600081359050612ea881612e82565b92915050565b600060208284031215612ec457612ec3612cd5565b5b6000612ed284828501612e99565b91505092915050565b600073ffffffffffffffffffffffffffffffffffffffff82169050919050565b6000612f0682612edb565b9050919050565b612f1681612efb565b82525050565b6000602082019050612f316000830184612f0d565b92915050565b612f4081612efb565b8114612f4b57600080fd5b50565b600081359050612f5d81612f37565b92915050565b60008060408385031215612f7a57612f79612cd5565b5b6000612f8885828601612f4e565b9250506020612f9985828601612e99565b9150509250929050565b612fac81612e78565b82525050565b6000602082019050612fc76000830184612fa3565b92915050565b600080600060608486031215612fe657612fe5612cd5565b5b6000612ff486828701612f4e565b935050602061300586828701612f4e565b925050604061301686828701612e99565b9150509250925092565b60006020828403121561303657613035612cd5565b5b600061304484828501612f4e565b91505092915050565b600080fd5b600080fd5b7f4e487b7100000000000000000000000000000000000000000000000000000000600052604160045260246000fd5b61308f82612e0c565b810181811067ffffffffffffffff821117156130ae576130ad613057565b5b80604052505050565b60006130c1612ccb565b90506130cd8282613086565b919050565b600067ffffffffffffffff8211156130ed576130ec613057565b5b6130f682612e0c565b9050602081019050919050565b82818337600083830152505050565b6000613125613120846130d2565b6130b7565b90508281526020810184848401111561314157613140613052565b5b61314c848285613103565b509392505050565b600082601f8301126131695761316861304d565b5b8135613179848260208601613112565b91505092915050565b60006020828403121561319857613197612cd5565b5b600082013567ffffffffffffffff8111156131b6576131b5612cda565b5b6131c284828501613154565b91505092915050565b600067ffffffffffffffff8211156131e6576131e5613057565b5b602082029050602081019050919050565b600080fd5b600061320f61320a846131cb565b6130b7565b90508083825260208201905060208402830185811115613232576132316131f7565b5b835b8181101561325b57806132478882612e99565b845260208401935050602081019050613234565b5050509392505050565b600082601f83011261327a5761327961304d565b5b813561328a8482602086016131fc565b91505092915050565b6000602082840312156132a9576132a8612cd5565b5b600082013567ffffffffffffffff8111156132c7576132c6612cda565b5b6132d384828501613265565b91505092915050565b600080604083850312156132f3576132f2612cd5565b5b600061330185828601612f4e565b925050602061331285828601612d7b565b9150509250929050565b600067ffffffffffffffff82111561333757613336613057565b5b61334082612e0c565b9050602081019050919050565b600061336061335b8461331c565b6130b7565b90508281526020810184848401111561337c5761337b613052565b5b613387848285613103565b509392505050565b600082601f8301126133a4576133a361304d565b5b81356133b484826020860161334d565b91505092915050565b600080600080608085870312156133d7576133d6612cd5565b5b60006133e587828801612f4e565b94505060206133f687828801612f4e565b935050604061340787828801612e99565b925050606085013567ffffffffffffffff81111561342857613427612cda565b5b6134348782880161338f565b91505092959194509250565b600067ffffffffffffffff82111561345b5761345a613057565b5b602082029050602081019050919050565b600061347f61347a84613440565b6130b7565b905080838252602082019050602084028301858111156134a2576134a16131f7565b5b835b818110156134cb57806134b78882612f4e565b8452602084019350506020810190506134a4565b5050509392505050565b600082601f8301126134ea576134e961304d565b5b81356134fa84826020860161346c565b91505092915050565b6000806040838503121561351a57613519612cd5565b5b600083013567ffffffffffffffff81111561353857613537612cda565b5b613544858286016134d5565b925050602083013567ffffffffffffffff81111561356557613564612cda565b5b61357185828601613265565b9150509250929050565b6000806040838503121561359257613591612cd5565b5b60006135a085828601612f4e565b92505060206135b185828601612f4e565b9150509250929050565b7f4e487b7100000000000000000000000000000000000000000000000000000000600052602260045260246000fd5b6000600282049050600182168061360257607f821691505b60208210811415613616576136156135bb565b5b50919050565b600081905092915050565b50565b600061363760008361361c565b915061364282613627565b600082019050919050565b60006136588261362a565b9150819050919050565b7f6275726e206d696e742069732070617573656400000000000000000000000000600082015250565b6000613698601383612dc8565b91506136a382613662565b602082019050919050565b600060208201905081810360008301526136c78161368b565b9050919050565b7f636c61696d206973206f766572206d6178207175616e74697479206174206f6e60008201527f6365000000000000000000000000000000000000000000000000000000000000602082015250565b600061372a602283612dc8565b9150613735826136ce565b604082019050919050565b600060208201905081810360008301526137598161371d565b9050919050565b7f4e487b7100000000000000000000000000000000000000000000000000000000600052601160045260246000fd5b600061379a82612e78565b91506137a583612e78565b9250817fffffffffffffffffffffffffffffffffffffffffffffffffffffffffffffffff04831182151516156137de576137dd613760565b5b828202905092915050565b7f6e6f7420656e6f75676820657468000000000000000000000000000000000000600082015250565b600061381f600e83612dc8565b915061382a826137e9565b602082019050919050565b6000602082019050818103600083015261384e81613812565b9050919050565b600061386082612e78565b915061386b83612e78565b9250827fffffffffffffffffffffffffffffffffffffffffffffffffffffffffffffffff038211156138a05761389f613760565b5b828201905092915050565b7f6f76657220746f74616c206275726e20636f7374000000000000000000000000600082015250565b60006138e1601483612dc8565b91506138ec826138ab565b602082019050919050565b60006020820190508181036000830152613910816138d4565b9050919050565b7f73656e646572206973206e6f742077686974656c697374656400000000000000600082015250565b600061394d601983612dc8565b915061395882613917565b602082019050919050565b6000602082019050818103600083015261397c81613940565b9050919050565b7f6f7665722077686974656c697374656420636f756e7400000000000000000000600082015250565b60006139b9601683612dc8565b91506139c482613983565b602082019050919050565b600060208201905081810360008301526139e8816139ac565b9050919050565b7f4e487b7100000000000000000000000000000000000000000000000000000000600052603260045260246000fd5b6000613a2982612e78565b91507fffffffffffffffffffffffffffffffffffffffffffffffffffffffffffffffff821415613a5c57613a5b613760565b5b600182019050919050565b7f6d696e7420697320706175736564000000000000000000000000000000000000600082015250565b6000613a9d600e83612dc8565b9150613aa882613a67565b602082019050919050565b60006020820190508181036000830152613acc81613a90565b9050919050565b600081905092915050565b6000613ae982612dbd565b613af38185613ad3565b9350613b03818560208601612dd9565b80840191505092915050565b60008190508160005260206000209050919050565b60008154613b31816135ea565b613b3b8186613ad3565b94506001821660008114613b565760018114613b6757613b9a565b60ff19831686528186019350613b9a565b613b7085613b0f565b60005b83811015613b9257815481890152600182019150602081019050613b73565b838801955050505b50505092915050565b6000613baf8285613ade565b9150613bbb8284613b24565b91508190509392505050565b7f4f776e61626c653a206e6577206f776e657220697320746865207a65726f206160008201527f6464726573730000000000000000000000000000000000000000000000000000602082015250565b6000613c23602683612dc8565b9150613c2e82613bc7565b604082019050919050565b60006020820190508181036000830152613c5281613c16565b9050919050565b7f4f776e61626c653a2063616c6c6572206973206e6f7420746865206f776e6572600082015250565b6000613c8f602083612dc8565b9150613c9a82613c59565b602082019050919050565b60006020820190508181036000830152613cbe81613c82565b9050919050565b6000613cd082612e78565b9150613cdb83612e78565b925082821015613cee57613ced613760565b5b828203905092915050565b600081519050919050565b600082825260208201905092915050565b6000613d2082613cf9565b613d2a8185613d04565b9350613d3a818560208601612dd9565b613d4381612e0c565b840191505092915050565b6000608082019050613d636000830187612f0d565b613d706020830186612f0d565b613d7d6040830185612fa3565b8181036060830152613d8f8184613d15565b905095945050505050565b600081519050613da981612d0b565b92915050565b600060208284031215613dc557613dc4612cd5565b5b6000613dd384828501613d9a565b91505092915050565b6000613de88285613ade565b9150613df48284613ade565b9150819050939250505056fea26469706673582212209cb653395f9e9d189880de1251921c9c057862770e7749d1be4cebedbb7c818864736f6c63430008090033",
  "linkReferences": {},
  "deployedLinkReferences": {}
}